{
  "address": "0x6683Ba115f767F0DE776C5d0311f485964b095dD",
  "abi": [
    {
      "inputs": [
        {
          "internalType": "address",
          "name": "_core",
          "type": "address"
        }
      ],
      "stateMutability": "nonpayable",
      "type": "constructor"
    },
    {
      "inputs": [],
      "name": "AccessControlBadConfirmation",
      "type": "error"
    },
    {
      "inputs": [
        {
          "internalType": "address",
          "name": "account",
          "type": "address"
        },
        {
          "internalType": "bytes32",
          "name": "neededRole",
          "type": "bytes32"
        }
      ],
      "name": "AccessControlUnauthorizedAccount",
      "type": "error"
    },
    {
      "inputs": [],
      "name": "EnforcedPause",
      "type": "error"
    },
    {
      "inputs": [],
      "name": "ExpectedPause",
      "type": "error"
    },
    {
      "inputs": [],
      "name": "ReentrancyGuardReentrantCall",
      "type": "error"
    },
    {
      "anonymous": false,
      "inputs": [
        {
          "indexed": true,
          "internalType": "address",
          "name": "core",
          "type": "address"
        },
        {
          "indexed": false,
          "internalType": "uint256",
          "name": "timestamp",
          "type": "uint256"
        }
      ],
      "name": "AutomationConfigured",
      "type": "event"
    },
    {
      "anonymous": false,
      "inputs": [
        {
          "indexed": true,
          "internalType": "address",
          "name": "company",
          "type": "address"
        }
      ],
      "name": "AutomationDisabled",
      "type": "event"
    },
    {
      "anonymous": false,
      "inputs": [
        {
          "indexed": true,
          "internalType": "address",
          "name": "company",
          "type": "address"
        }
      ],
      "name": "AutomationEnabled",
      "type": "event"
    },
    {
      "anonymous": false,
      "inputs": [
        {
          "indexed": false,
          "internalType": "address",
          "name": "account",
          "type": "address"
        }
      ],
      "name": "Paused",
      "type": "event"
    },
    {
      "anonymous": false,
      "inputs": [
        {
          "indexed": false,
          "internalType": "uint256",
          "name": "processedCount",
          "type": "uint256"
        },
        {
          "indexed": false,
          "internalType": "uint256",
          "name": "timestamp",
          "type": "uint256"
        }
      ],
      "name": "PaymentsProcessed",
      "type": "event"
    },
    {
      "anonymous": false,
      "inputs": [
        {
          "indexed": true,
          "internalType": "bytes32",
          "name": "role",
          "type": "bytes32"
        },
        {
          "indexed": true,
          "internalType": "bytes32",
          "name": "previousAdminRole",
          "type": "bytes32"
        },
        {
          "indexed": true,
          "internalType": "bytes32",
          "name": "newAdminRole",
          "type": "bytes32"
        }
      ],
      "name": "RoleAdminChanged",
      "type": "event"
    },
    {
      "anonymous": false,
      "inputs": [
        {
          "indexed": true,
          "internalType": "bytes32",
          "name": "role",
          "type": "bytes32"
        },
        {
          "indexed": true,
          "internalType": "address",
          "name": "account",
          "type": "address"
        },
        {
          "indexed": true,
          "internalType": "address",
          "name": "sender",
          "type": "address"
        }
      ],
      "name": "RoleGranted",
      "type": "event"
    },
    {
      "anonymous": false,
      "inputs": [
        {
          "indexed": true,
          "internalType": "bytes32",
          "name": "role",
          "type": "bytes32"
        },
        {
          "indexed": true,
          "internalType": "address",
          "name": "account",
          "type": "address"
        },
        {
          "indexed": true,
          "internalType": "address",
          "name": "sender",
          "type": "address"
        }
      ],
      "name": "RoleRevoked",
      "type": "event"
    },
    {
      "anonymous": false,
      "inputs": [
        {
          "indexed": false,
          "internalType": "address",
          "name": "account",
          "type": "address"
        }
      ],
      "name": "Unpaused",
      "type": "event"
    },
    {
      "inputs": [],
      "name": "AUTOMATION_ROLE",
      "outputs": [
        {
          "internalType": "bytes32",
          "name": "",
          "type": "bytes32"
        }
      ],
      "stateMutability": "view",
      "type": "function"
    },
    {
      "inputs": [],
      "name": "DEFAULT_ADMIN_ROLE",
      "outputs": [
        {
          "internalType": "bytes32",
          "name": "",
          "type": "bytes32"
        }
      ],
      "stateMutability": "view",
      "type": "function"
    },
    {
      "inputs": [],
      "name": "MAX_BATCH_SIZE",
      "outputs": [
        {
          "internalType": "uint256",
          "name": "",
          "type": "uint256"
        }
      ],
      "stateMutability": "view",
      "type": "function"
    },
    {
      "inputs": [],
      "name": "PROCESSING_INTERVAL",
      "outputs": [
        {
          "internalType": "uint256",
          "name": "",
          "type": "uint256"
        }
      ],
      "stateMutability": "view",
      "type": "function"
    },
    {
      "inputs": [
        {
          "internalType": "address",
          "name": "",
          "type": "address"
        }
      ],
      "name": "automatedCompanies",
      "outputs": [
        {
          "internalType": "bool",
          "name": "",
          "type": "bool"
        }
      ],
      "stateMutability": "view",
      "type": "function"
    },
    {
      "inputs": [],
      "name": "core",
      "outputs": [
        {
          "internalType": "address",
          "name": "",
          "type": "address"
        }
      ],
      "stateMutability": "view",
      "type": "function"
    },
    {
      "inputs": [],
      "name": "disableAutomation",
      "outputs": [],
      "stateMutability": "nonpayable",
      "type": "function"
    },
    {
      "inputs": [],
      "name": "enableAutomation",
      "outputs": [],
      "stateMutability": "nonpayable",
      "type": "function"
    },
    {
      "inputs": [
        {
          "internalType": "bytes32",
          "name": "role",
          "type": "bytes32"
        }
      ],
      "name": "getRoleAdmin",
      "outputs": [
        {
          "internalType": "bytes32",
          "name": "",
          "type": "bytes32"
        }
      ],
      "stateMutability": "view",
      "type": "function"
    },
    {
      "inputs": [
        {
          "internalType": "bytes32",
          "name": "role",
          "type": "bytes32"
        },
        {
          "internalType": "address",
          "name": "account",
          "type": "address"
        }
      ],
      "name": "grantRole",
      "outputs": [],
      "stateMutability": "nonpayable",
      "type": "function"
    },
    {
      "inputs": [
        {
          "internalType": "bytes32",
          "name": "role",
          "type": "bytes32"
        },
        {
          "internalType": "address",
          "name": "account",
          "type": "address"
        }
      ],
      "name": "hasRole",
      "outputs": [
        {
          "internalType": "bool",
          "name": "",
          "type": "bool"
        }
      ],
      "stateMutability": "view",
      "type": "function"
    },
    {
      "inputs": [],
      "name": "lastProcessedTime",
      "outputs": [
        {
          "internalType": "uint256",
          "name": "",
          "type": "uint256"
        }
      ],
      "stateMutability": "view",
      "type": "function"
    },
    {
      "inputs": [],
      "name": "pause",
      "outputs": [],
      "stateMutability": "nonpayable",
      "type": "function"
    },
    {
      "inputs": [],
      "name": "paused",
      "outputs": [
        {
          "internalType": "bool",
          "name": "",
          "type": "bool"
        }
      ],
      "stateMutability": "view",
      "type": "function"
    },
    {
      "inputs": [],
      "name": "processPaymentBatch",
      "outputs": [
        {
          "internalType": "uint256",
          "name": "",
          "type": "uint256"
        }
      ],
      "stateMutability": "nonpayable",
      "type": "function"
    },
    {
      "inputs": [
        {
          "internalType": "bytes32",
          "name": "role",
          "type": "bytes32"
        },
        {
          "internalType": "address",
          "name": "callerConfirmation",
          "type": "address"
        }
      ],
      "name": "renounceRole",
      "outputs": [],
      "stateMutability": "nonpayable",
      "type": "function"
    },
    {
      "inputs": [
        {
          "internalType": "bytes32",
          "name": "role",
          "type": "bytes32"
        },
        {
          "internalType": "address",
          "name": "account",
          "type": "address"
        }
      ],
      "name": "revokeRole",
      "outputs": [],
      "stateMutability": "nonpayable",
      "type": "function"
    },
    {
      "inputs": [
        {
          "internalType": "bytes4",
          "name": "interfaceId",
          "type": "bytes4"
        }
      ],
      "name": "supportsInterface",
      "outputs": [
        {
          "internalType": "bool",
          "name": "",
          "type": "bool"
        }
      ],
      "stateMutability": "view",
      "type": "function"
    },
    {
      "inputs": [],
      "name": "unpause",
      "outputs": [],
      "stateMutability": "nonpayable",
      "type": "function"
    }
  ],
  "transactionHash": "0xd11205f50d70d79e1422910538e87ac7f316b0a75813a6582d6876aaf50b2e5c",
  "args": [
    "0xcC16052C70f7188DC724D420Fc6fb284026877f7"
  ],
  "numDeployments": 1,
  "solcInputHash": "dd7f43f006d7b5e17cd30b2a51833282",
  "bytecode": "0x60a060405234801561001057600080fd5b50604051610f96380380610f9683398101604081905261002f9161020d565b60016000556002805460ff191690556001600160a01b0381166100995760405162461bcd60e51b815260206004820152601460248201527f496e76616c696420636f7265206164647265737300000000000000000000000060448201526064015b60405180910390fd5b6000816001600160a01b03163b116100f35760405162461bcd60e51b815260206004820152601560248201527f436f7265206d75737420626520636f6e747261637400000000000000000000006044820152606401610090565b6100fe600033610178565b506101297f85d36e3b488c35c2a15344b305cb84e2000f26d4f3a7c1e8a516f0e82aee752a33610178565b506001600160a01b03811660808190524260038190556040519081527f2628ab2c90db45778c4c5e0816691205ab9e0c5adc54843a13ba0042daad3e839060200160405180910390a25061023d565b60008281526001602090815260408083206001600160a01b038516845290915281205460ff166102035760008381526001602081815260408084206001600160a01b0387168086529252808420805460ff19169093179092559051339286917f2f8788117e7eff1d82e926ec794901d17c78024a50270940304540a733656f0d9190a4506001610207565b5060005b92915050565b60006020828403121561021f57600080fd5b81516001600160a01b038116811461023657600080fd5b9392505050565b608051610d3761025f6000396000818161027301526105130152610d376000f3fe608060405234801561001057600080fd5b50600436106101215760003560e01c806363c98ffa116100ad57806391d148541161007157806391d1485414610238578063a217fddf1461024b578063cfdbf25414610253578063d547741f1461025b578063f2f4eb261461026e57600080fd5b806363c98ffa146101f45780636ef23566146101fd578063727845e4146102055780637a7c836b1461020d5780638456cb591461023057600080fd5b806336568abe116100f457806336568abe146101bc5780633f4ba83a146101cf57806355a741fc146101d7578063588d8da8146101e15780635c975abb146101e957600080fd5b806301ffc9a714610126578063248a9ca31461014e57806324c20eec146101805780632f2ff15d146101a7575b600080fd5b610139610134366004610af0565b6102ad565b60405190151581526020015b60405180910390f35b61017261015c366004610b21565b6000908152600160208190526040909120015490565b604051908152602001610145565b6101727f85d36e3b488c35c2a15344b305cb84e2000f26d4f3a7c1e8a516f0e82aee752a81565b6101ba6101b5366004610b4f565b6102e4565b005b6101ba6101ca366004610b4f565b610310565b6101ba610348565b6101726201518081565b6101ba61035e565b60025460ff16610139565b61017260035481565b6101ba6103f1565b610172610487565b61013961021b366004610b7f565b60046020526000908152604090205460ff1681565b6101ba61085d565b610139610246366004610b4f565b610870565b610172600081565b610172603281565b6101ba610269366004610b4f565b61089b565b6102957f000000000000000000000000000000000000000000000000000000000000000081565b6040516001600160a01b039091168152602001610145565b60006001600160e01b03198216637965db0b60e01b14806102de57506301ffc9a760e01b6001600160e01b03198316145b92915050565b60008281526001602081905260409091200154610300816108c1565b61030a83836108cb565b50505050565b6001600160a01b03811633146103395760405163334bd91960e11b815260040160405180910390fd5b6103438282610944565b505050565b6000610353816108c1565b61035b6109b1565b50565b3360009081526004602052604090205460ff166103b25760405162461bcd60e51b815260206004820152600d60248201526c139bdd08185d5d1bdb585d1959609a1b60448201526064015b60405180910390fd5b33600081815260046020526040808220805460ff19169055517f867ee0f7d21c35a3d093eaf8bda102ad61246c670c8098cadab2e89d67bb8b269190a2565b3360009081526004602052604090205460ff16156104455760405162461bcd60e51b8152602060048201526011602482015270105b1c9958591e48185d5d1bdb585d1959607a1b60448201526064016103a9565b33600081815260046020526040808220805460ff19166001179055517fcfc5c918774a4efe002a45181a566f3e5730ac34c384acc873630c81c6e9c24f9190a2565b6000610491610a03565b610499610a2d565b7f85d36e3b488c35c2a15344b305cb84e2000f26d4f3a7c1e8a516f0e82aee752a6104c3816108c1565b620151806003546104d49190610bb2565b42101561050f5760405162461bcd60e51b8152602060048201526009602482015268546f6f206561726c7960b81b60448201526064016103a9565b60007f00000000000000000000000000000000000000000000000000000000000000009050600080826001600160a01b03166321176f9a6040518163ffffffff1660e01b8152600401600060405180830381865afa158015610575573d6000803e3d6000fd5b505050506040513d6000823e601f3d908101601f1916820160405261059d9190810190610beb565b905060005b8151811080156105b25750603283105b1561080a5760008282815181106105cb576105cb610cb0565b60209081029190910101516040516307ec07bf60e11b81526001600160a01b03808316600483015291925090861690630fd80f7e90602401602060405180830381865afa158015610620573d6000803e3d6000fd5b505050506040513d601f19601f820116820180604052508101906106449190610cc6565b61064e57506107f8565b604051630e82e1c160e41b81526001600160a01b0382811660048301526000919087169063e82e1c1090602401600060405180830381865afa158015610698573d6000803e3d6000fd5b505050506040513d6000823e601f3d908101601f191682016040526106c09190810190610beb565b905060005b8151811080156106d55750603286105b156107f45760008282815181106106ee576106ee610cb0565b602090810291909101015160405163ca35392560e01b81526001600160a01b03868116600483015280831660248301529192509089169063ca35392590604401602060405180830381865afa15801561074b573d6000803e3d6000fd5b505050506040513d601f19601f8201168201806040525081019061076f9190610cc6565b156107e057604051636dfc2a6f60e01b81526001600160a01b038281166004830152891690636dfc2a6f90602401600060405180830381600087803b1580156107b757600080fd5b505af19250505080156107c8575060015b6107d257506107e2565b866107dc81610ce8565b9750505b505b806107ec81610ce8565b9150506106c5565b5050505b8061080281610ce8565b9150506105a2565b504260038190556040805184815260208101929092527ff4f3f0c0742c501507fa2580643b59a3293f5dcfe156a83a4f15b29d289dc1db910160405180910390a1509250505061085a6001600055565b90565b6000610868816108c1565b61035b610a53565b60009182526001602090815260408084206001600160a01b0393909316845291905290205460ff1690565b600082815260016020819052604090912001546108b7816108c1565b61030a8383610944565b61035b8133610a90565b60006108d78383610870565b61093c5760008381526001602081815260408084206001600160a01b0387168086529252808420805460ff19169093179092559051339286917f2f8788117e7eff1d82e926ec794901d17c78024a50270940304540a733656f0d9190a45060016102de565b5060006102de565b60006109508383610870565b1561093c5760008381526001602090815260408083206001600160a01b0386168085529252808320805460ff1916905551339286917ff6391f5c32d9c69d2a47ea670b442974b53935d1edc7fd64eb21e047a839171b9190a45060016102de565b6109b9610acd565b6002805460ff191690557f5db9ee0a495bf2e6ff9c91a7834c1ba4fdd244a5e8aa4e537bd38aeae4b073aa335b6040516001600160a01b03909116815260200160405180910390a1565b600260005403610a2657604051633ee5aeb560e01b815260040160405180910390fd5b6002600055565b60025460ff1615610a515760405163d93c066560e01b815260040160405180910390fd5b565b610a5b610a2d565b6002805460ff191660011790557f62e78cea01bee320cd4e420270b5ea74000d11b0c9f74754ebdbfc544b05a2586109e63390565b610a9a8282610870565b610ac95760405163e2517d3f60e01b81526001600160a01b0382166004820152602481018390526044016103a9565b5050565b60025460ff16610a5157604051638dfc202b60e01b815260040160405180910390fd5b600060208284031215610b0257600080fd5b81356001600160e01b031981168114610b1a57600080fd5b9392505050565b600060208284031215610b3357600080fd5b5035919050565b6001600160a01b038116811461035b57600080fd5b60008060408385031215610b6257600080fd5b823591506020830135610b7481610b3a565b809150509250929050565b600060208284031215610b9157600080fd5b8135610b1a81610b3a565b634e487b7160e01b600052601160045260246000fd5b808201808211156102de576102de610b9c565b634e487b7160e01b600052604160045260246000fd5b8051610be681610b3a565b919050565b60006020808385031215610bfe57600080fd5b825167ffffffffffffffff80821115610c1657600080fd5b818501915085601f830112610c2a57600080fd5b815181811115610c3c57610c3c610bc5565b8060051b604051601f19603f83011681018181108582111715610c6157610c61610bc5565b604052918252848201925083810185019188831115610c7f57600080fd5b938501935b82851015610ca457610c9585610bdb565b84529385019392850192610c84565b98975050505050505050565b634e487b7160e01b600052603260045260246000fd5b600060208284031215610cd857600080fd5b81518015158114610b1a57600080fd5b600060018201610cfa57610cfa610b9c565b506001019056fea2646970667358221220918de70a486abde366c9897db0e4990b07887dc7bd1c9043c0edc24158e22e5864736f6c63430008140033",
  "devdoc": {
    "errors": {
      "AccessControlBadConfirmation()": [
        {
          "details": "The caller of a function is not the expected one. NOTE: Don't confuse with {AccessControlUnauthorizedAccount}."
        }
      ],
      "AccessControlUnauthorizedAccount(address,bytes32)": [
        {
          "details": "The `account` is missing a role."
        }
      ],
      "EnforcedPause()": [
        {
          "details": "The operation failed because the contract is paused."
        }
      ],
      "ExpectedPause()": [
        {
          "details": "The operation failed because the contract is not paused."
        }
      ],
      "ReentrancyGuardReentrantCall()": [
        {
          "details": "Unauthorized reentrant call."
        }
      ]
    },
    "events": {
      "Paused(address)": {
        "details": "Emitted when the pause is triggered by `account`."
      },
      "RoleAdminChanged(bytes32,bytes32,bytes32)": {
        "details": "Emitted when `newAdminRole` is set as ``role``'s admin role, replacing `previousAdminRole` `DEFAULT_ADMIN_ROLE` is the starting admin for all roles, despite {RoleAdminChanged} not being emitted signaling this."
      },
      "RoleGranted(bytes32,address,address)": {
        "details": "Emitted when `account` is granted `role`. `sender` is the account that originated the contract call, an admin role bearer except when using {AccessControl-_setupRole}."
      },
      "RoleRevoked(bytes32,address,address)": {
        "details": "Emitted when `account` is revoked `role`. `sender` is the account that originated the contract call:   - if using `revokeRole`, it is the admin role bearer   - if using `renounceRole`, it is the role bearer (i.e. `account`)"
      },
      "Unpaused(address)": {
        "details": "Emitted when the pause is lifted by `account`."
      }
    },
    "kind": "dev",
    "methods": {
      "getRoleAdmin(bytes32)": {
        "details": "Returns the admin role that controls `role`. See {grantRole} and {revokeRole}. To change a role's admin, use {_setRoleAdmin}."
      },
      "grantRole(bytes32,address)": {
        "details": "Grants `role` to `account`. If `account` had not been already granted `role`, emits a {RoleGranted} event. Requirements: - the caller must have ``role``'s admin role. May emit a {RoleGranted} event."
      },
      "hasRole(bytes32,address)": {
        "details": "Returns `true` if `account` has been granted `role`."
      },
      "paused()": {
        "details": "Returns true if the contract is paused, and false otherwise."
      },
      "renounceRole(bytes32,address)": {
        "details": "Revokes `role` from the calling account. Roles are often managed via {grantRole} and {revokeRole}: this function's purpose is to provide a mechanism for accounts to lose their privileges if they are compromised (such as when a trusted device is misplaced). If the calling account had been revoked `role`, emits a {RoleRevoked} event. Requirements: - the caller must be `callerConfirmation`. May emit a {RoleRevoked} event."
      },
      "revokeRole(bytes32,address)": {
        "details": "Revokes `role` from `account`. If `account` had been granted `role`, emits a {RoleRevoked} event. Requirements: - the caller must have ``role``'s admin role. May emit a {RoleRevoked} event."
      },
      "supportsInterface(bytes4)": {
        "details": "See {IERC165-supportsInterface}."
      }
    },
    "version": 1
  },
  "userdoc": {
    "kind": "user",
    "methods": {},
    "version": 1
  },
  "storageLayout": {
    "storage": [
      {
        "astId": 1193,
        "contract": "contracts/PaythenaAutomation.sol:PaythenaAutomation",
        "label": "_status",
        "offset": 0,
        "slot": "0",
        "type": "t_uint256"
      },
      {
        "astId": 26,
        "contract": "contracts/PaythenaAutomation.sol:PaythenaAutomation",
        "label": "_roles",
        "offset": 0,
        "slot": "1",
        "type": "t_mapping(t_bytes32,t_struct(RoleData)21_storage)"
      },
      {
        "astId": 1074,
        "contract": "contracts/PaythenaAutomation.sol:PaythenaAutomation",
        "label": "_paused",
        "offset": 0,
        "slot": "2",
        "type": "t_bool"
      },
      {
        "astId": 1316,
        "contract": "contracts/PaythenaAutomation.sol:PaythenaAutomation",
        "label": "lastProcessedTime",
        "offset": 0,
        "slot": "3",
        "type": "t_uint256"
      },
      {
        "astId": 1326,
        "contract": "contracts/PaythenaAutomation.sol:PaythenaAutomation",
        "label": "automatedCompanies",
        "offset": 0,
        "slot": "4",
        "type": "t_mapping(t_address,t_bool)"
      }
    ],
    "types": {
      "t_address": {
        "encoding": "inplace",
        "label": "address",
        "numberOfBytes": "20"
      },
      "t_bool": {
        "encoding": "inplace",
        "label": "bool",
        "numberOfBytes": "1"
      },
      "t_bytes32": {
        "encoding": "inplace",
        "label": "bytes32",
        "numberOfBytes": "32"
      },
      "t_mapping(t_address,t_bool)": {
        "encoding": "mapping",
        "key": "t_address",
        "label": "mapping(address => bool)",
        "numberOfBytes": "32",
        "value": "t_bool"
      },
      "t_mapping(t_bytes32,t_struct(RoleData)21_storage)": {
        "encoding": "mapping",
        "key": "t_bytes32",
        "label": "mapping(bytes32 => struct AccessControl.RoleData)",
        "numberOfBytes": "32",
        "value": "t_struct(RoleData)21_storage"
      },
      "t_struct(RoleData)21_storage": {
        "encoding": "inplace",
        "label": "struct AccessControl.RoleData",
        "members": [
          {
            "astId": 18,
            "contract": "contracts/PaythenaAutomation.sol:PaythenaAutomation",
            "label": "hasRole",
            "offset": 0,
            "slot": "0",
            "type": "t_mapping(t_address,t_bool)"
          },
          {
            "astId": 20,
            "contract": "contracts/PaythenaAutomation.sol:PaythenaAutomation",
            "label": "adminRole",
            "offset": 0,
            "slot": "1",
            "type": "t_bytes32"
          }
        ],
        "numberOfBytes": "64"
      },
      "t_uint256": {
        "encoding": "inplace",
        "label": "uint256",
        "numberOfBytes": "32"
      }
    }
  }
}