{
  "address": "0x165eD3639C955CC79485ee580659860CdEAC9155",
  "abi": [
    {
      "inputs": [
        {
          "internalType": "address",
          "name": "_core",
          "type": "address"
        }
      ],
      "stateMutability": "nonpayable",
      "type": "constructor"
    },
    {
      "inputs": [],
      "name": "AccessControlBadConfirmation",
      "type": "error"
    },
    {
      "inputs": [
        {
          "internalType": "address",
          "name": "account",
          "type": "address"
        },
        {
          "internalType": "bytes32",
          "name": "neededRole",
          "type": "bytes32"
        }
      ],
      "name": "AccessControlUnauthorizedAccount",
      "type": "error"
    },
    {
      "inputs": [
        {
          "internalType": "address",
          "name": "target",
          "type": "address"
        }
      ],
      "name": "AddressEmptyCode",
      "type": "error"
    },
    {
      "inputs": [
        {
          "internalType": "address",
          "name": "account",
          "type": "address"
        }
      ],
      "name": "AddressInsufficientBalance",
      "type": "error"
    },
    {
      "inputs": [],
      "name": "EnforcedPause",
      "type": "error"
    },
    {
      "inputs": [],
      "name": "ExpectedPause",
      "type": "error"
    },
    {
      "inputs": [],
      "name": "FailedInnerCall",
      "type": "error"
    },
    {
      "inputs": [],
      "name": "ReentrancyGuardReentrantCall",
      "type": "error"
    },
    {
      "inputs": [
        {
          "internalType": "address",
          "name": "token",
          "type": "address"
        }
      ],
      "name": "SafeERC20FailedOperation",
      "type": "error"
    },
    {
      "anonymous": false,
      "inputs": [
        {
          "indexed": true,
          "internalType": "address",
          "name": "borrower",
          "type": "address"
        },
        {
          "indexed": false,
          "internalType": "uint256",
          "name": "amount",
          "type": "uint256"
        },
        {
          "indexed": false,
          "internalType": "uint256",
          "name": "remainingBalance",
          "type": "uint256"
        },
        {
          "indexed": false,
          "internalType": "uint256",
          "name": "timestamp",
          "type": "uint256"
        }
      ],
      "name": "AutomatedRepaymentProcessed",
      "type": "event"
    },
    {
      "anonymous": false,
      "inputs": [
        {
          "indexed": true,
          "internalType": "address",
          "name": "borrower",
          "type": "address"
        },
        {
          "indexed": false,
          "internalType": "uint256",
          "name": "newScore",
          "type": "uint256"
        }
      ],
      "name": "CreditScoreUpdated",
      "type": "event"
    },
    {
      "anonymous": false,
      "inputs": [
        {
          "indexed": true,
          "internalType": "address",
          "name": "borrower",
          "type": "address"
        },
        {
          "indexed": false,
          "internalType": "uint256",
          "name": "amount",
          "type": "uint256"
        },
        {
          "indexed": false,
          "internalType": "uint256",
          "name": "duration",
          "type": "uint256"
        },
        {
          "indexed": false,
          "internalType": "uint256",
          "name": "interestRate",
          "type": "uint256"
        }
      ],
      "name": "LoanApproved",
      "type": "event"
    },
    {
      "anonymous": false,
      "inputs": [
        {
          "indexed": true,
          "internalType": "address",
          "name": "borrower",
          "type": "address"
        },
        {
          "indexed": false,
          "internalType": "uint256",
          "name": "totalPaid",
          "type": "uint256"
        }
      ],
      "name": "LoanCompleted",
      "type": "event"
    },
    {
      "anonymous": false,
      "inputs": [
        {
          "indexed": true,
          "internalType": "address",
          "name": "borrower",
          "type": "address"
        },
        {
          "indexed": false,
          "internalType": "uint256",
          "name": "remainingAmount",
          "type": "uint256"
        }
      ],
      "name": "LoanDefaulted",
      "type": "event"
    },
    {
      "anonymous": false,
      "inputs": [
        {
          "indexed": true,
          "internalType": "address",
          "name": "borrower",
          "type": "address"
        },
        {
          "indexed": false,
          "internalType": "uint256",
          "name": "amount",
          "type": "uint256"
        },
        {
          "indexed": false,
          "internalType": "uint256",
          "name": "duration",
          "type": "uint256"
        },
        {
          "indexed": false,
          "internalType": "string",
          "name": "purpose",
          "type": "string"
        },
        {
          "indexed": false,
          "internalType": "uint256",
          "name": "timestamp",
          "type": "uint256"
        }
      ],
      "name": "LoanRequested",
      "type": "event"
    },
    {
      "anonymous": false,
      "inputs": [
        {
          "indexed": false,
          "internalType": "address",
          "name": "account",
          "type": "address"
        }
      ],
      "name": "Paused",
      "type": "event"
    },
    {
      "anonymous": false,
      "inputs": [
        {
          "indexed": true,
          "internalType": "address",
          "name": "borrower",
          "type": "address"
        },
        {
          "indexed": false,
          "internalType": "uint256",
          "name": "amount",
          "type": "uint256"
        },
        {
          "indexed": false,
          "internalType": "uint256",
          "name": "remainingBalance",
          "type": "uint256"
        }
      ],
      "name": "PaymentMade",
      "type": "event"
    },
    {
      "anonymous": false,
      "inputs": [
        {
          "indexed": true,
          "internalType": "address",
          "name": "borrower",
          "type": "address"
        },
        {
          "indexed": false,
          "internalType": "uint256",
          "name": "amount",
          "type": "uint256"
        },
        {
          "indexed": false,
          "internalType": "uint256",
          "name": "frequency",
          "type": "uint256"
        },
        {
          "indexed": false,
          "internalType": "uint256",
          "name": "totalPayments",
          "type": "uint256"
        }
      ],
      "name": "RepaymentScheduleCreated",
      "type": "event"
    },
    {
      "anonymous": false,
      "inputs": [
        {
          "indexed": true,
          "internalType": "bytes32",
          "name": "role",
          "type": "bytes32"
        },
        {
          "indexed": true,
          "internalType": "bytes32",
          "name": "previousAdminRole",
          "type": "bytes32"
        },
        {
          "indexed": true,
          "internalType": "bytes32",
          "name": "newAdminRole",
          "type": "bytes32"
        }
      ],
      "name": "RoleAdminChanged",
      "type": "event"
    },
    {
      "anonymous": false,
      "inputs": [
        {
          "indexed": true,
          "internalType": "bytes32",
          "name": "role",
          "type": "bytes32"
        },
        {
          "indexed": true,
          "internalType": "address",
          "name": "account",
          "type": "address"
        },
        {
          "indexed": true,
          "internalType": "address",
          "name": "sender",
          "type": "address"
        }
      ],
      "name": "RoleGranted",
      "type": "event"
    },
    {
      "anonymous": false,
      "inputs": [
        {
          "indexed": true,
          "internalType": "bytes32",
          "name": "role",
          "type": "bytes32"
        },
        {
          "indexed": true,
          "internalType": "address",
          "name": "account",
          "type": "address"
        },
        {
          "indexed": true,
          "internalType": "address",
          "name": "sender",
          "type": "address"
        }
      ],
      "name": "RoleRevoked",
      "type": "event"
    },
    {
      "anonymous": false,
      "inputs": [
        {
          "indexed": false,
          "internalType": "address",
          "name": "account",
          "type": "address"
        }
      ],
      "name": "Unpaused",
      "type": "event"
    },
    {
      "inputs": [],
      "name": "DEFAULT_ADMIN_ROLE",
      "outputs": [
        {
          "internalType": "bytes32",
          "name": "",
          "type": "bytes32"
        }
      ],
      "stateMutability": "view",
      "type": "function"
    },
    {
      "inputs": [],
      "name": "DEFAULT_INTEREST_RATE",
      "outputs": [
        {
          "internalType": "uint256",
          "name": "",
          "type": "uint256"
        }
      ],
      "stateMutability": "view",
      "type": "function"
    },
    {
      "inputs": [],
      "name": "GRACE_PERIOD",
      "outputs": [
        {
          "internalType": "uint256",
          "name": "",
          "type": "uint256"
        }
      ],
      "stateMutability": "view",
      "type": "function"
    },
    {
      "inputs": [],
      "name": "INTEREST_RATE_BASE",
      "outputs": [
        {
          "internalType": "uint256",
          "name": "",
          "type": "uint256"
        }
      ],
      "stateMutability": "view",
      "type": "function"
    },
    {
      "inputs": [],
      "name": "LATE_PAYMENT_PENALTY",
      "outputs": [
        {
          "internalType": "uint256",
          "name": "",
          "type": "uint256"
        }
      ],
      "stateMutability": "view",
      "type": "function"
    },
    {
      "inputs": [],
      "name": "LOAN_MANAGER_ROLE",
      "outputs": [
        {
          "internalType": "bytes32",
          "name": "",
          "type": "bytes32"
        }
      ],
      "stateMutability": "view",
      "type": "function"
    },
    {
      "inputs": [],
      "name": "MAX_LOAN_DURATION",
      "outputs": [
        {
          "internalType": "uint256",
          "name": "",
          "type": "uint256"
        }
      ],
      "stateMutability": "view",
      "type": "function"
    },
    {
      "inputs": [],
      "name": "MAX_LOAN_TO_SALARY_RATIO",
      "outputs": [
        {
          "internalType": "uint256",
          "name": "",
          "type": "uint256"
        }
      ],
      "stateMutability": "view",
      "type": "function"
    },
    {
      "inputs": [],
      "name": "MIN_LOAN_DURATION",
      "outputs": [
        {
          "internalType": "uint256",
          "name": "",
          "type": "uint256"
        }
      ],
      "stateMutability": "view",
      "type": "function"
    },
    {
      "inputs": [],
      "name": "USDE",
      "outputs": [
        {
          "internalType": "contract IERC20",
          "name": "",
          "type": "address"
        }
      ],
      "stateMutability": "view",
      "type": "function"
    },
    {
      "inputs": [
        {
          "internalType": "address",
          "name": "borrower",
          "type": "address"
        },
        {
          "internalType": "uint256",
          "name": "customInterestRate",
          "type": "uint256"
        }
      ],
      "name": "approveLoan",
      "outputs": [],
      "stateMutability": "nonpayable",
      "type": "function"
    },
    {
      "inputs": [],
      "name": "cancelAutomatedRepayment",
      "outputs": [],
      "stateMutability": "nonpayable",
      "type": "function"
    },
    {
      "inputs": [
        {
          "internalType": "address",
          "name": "borrower",
          "type": "address"
        }
      ],
      "name": "checkLoanDefault",
      "outputs": [],
      "stateMutability": "nonpayable",
      "type": "function"
    },
    {
      "inputs": [
        {
          "internalType": "address",
          "name": "borrower",
          "type": "address"
        }
      ],
      "name": "checkRepaymentNeeded",
      "outputs": [
        {
          "internalType": "bool",
          "name": "needed",
          "type": "bool"
        },
        {
          "internalType": "uint256",
          "name": "amount",
          "type": "uint256"
        }
      ],
      "stateMutability": "view",
      "type": "function"
    },
    {
      "inputs": [],
      "name": "coreContract",
      "outputs": [
        {
          "internalType": "contract IPaythenaCore",
          "name": "",
          "type": "address"
        }
      ],
      "stateMutability": "view",
      "type": "function"
    },
    {
      "inputs": [
        {
          "internalType": "address",
          "name": "",
          "type": "address"
        }
      ],
      "name": "creditScore",
      "outputs": [
        {
          "internalType": "uint256",
          "name": "",
          "type": "uint256"
        }
      ],
      "stateMutability": "view",
      "type": "function"
    },
    {
      "inputs": [
        {
          "internalType": "address",
          "name": "borrower",
          "type": "address"
        }
      ],
      "name": "getLoanDetails",
      "outputs": [
        {
          "internalType": "uint256",
          "name": "amount",
          "type": "uint256"
        },
        {
          "internalType": "uint256",
          "name": "totalDue",
          "type": "uint256"
        },
        {
          "internalType": "uint256",
          "name": "monthlyPayment",
          "type": "uint256"
        },
        {
          "internalType": "uint256",
          "name": "remainingAmount",
          "type": "uint256"
        },
        {
          "internalType": "uint256",
          "name": "nextPaymentDue",
          "type": "uint256"
        },
        {
          "internalType": "enum PaythenaLoan.LoanStatus",
          "name": "status",
          "type": "uint8"
        }
      ],
      "stateMutability": "view",
      "type": "function"
    },
    {
      "inputs": [
        {
          "internalType": "address",
          "name": "borrower",
          "type": "address"
        }
      ],
      "name": "getRepaymentSchedule",
      "outputs": [
        {
          "internalType": "uint256",
          "name": "amount",
          "type": "uint256"
        },
        {
          "internalType": "uint256",
          "name": "frequency",
          "type": "uint256"
        },
        {
          "internalType": "uint256",
          "name": "nextPaymentDate",
          "type": "uint256"
        },
        {
          "internalType": "uint256",
          "name": "remainingPayments",
          "type": "uint256"
        },
        {
          "internalType": "bool",
          "name": "isActive",
          "type": "bool"
        }
      ],
      "stateMutability": "view",
      "type": "function"
    },
    {
      "inputs": [
        {
          "internalType": "bytes32",
          "name": "role",
          "type": "bytes32"
        }
      ],
      "name": "getRoleAdmin",
      "outputs": [
        {
          "internalType": "bytes32",
          "name": "",
          "type": "bytes32"
        }
      ],
      "stateMutability": "view",
      "type": "function"
    },
    {
      "inputs": [
        {
          "internalType": "bytes32",
          "name": "role",
          "type": "bytes32"
        },
        {
          "internalType": "address",
          "name": "account",
          "type": "address"
        }
      ],
      "name": "grantRole",
      "outputs": [],
      "stateMutability": "nonpayable",
      "type": "function"
    },
    {
      "inputs": [
        {
          "internalType": "bytes32",
          "name": "role",
          "type": "bytes32"
        },
        {
          "internalType": "address",
          "name": "account",
          "type": "address"
        }
      ],
      "name": "hasRole",
      "outputs": [
        {
          "internalType": "bool",
          "name": "",
          "type": "bool"
        }
      ],
      "stateMutability": "view",
      "type": "function"
    },
    {
      "inputs": [
        {
          "internalType": "address",
          "name": "",
          "type": "address"
        }
      ],
      "name": "loanApplications",
      "outputs": [
        {
          "internalType": "uint256",
          "name": "requestedAmount",
          "type": "uint256"
        },
        {
          "internalType": "uint256",
          "name": "duration",
          "type": "uint256"
        },
        {
          "internalType": "string",
          "name": "purpose",
          "type": "string"
        },
        {
          "internalType": "uint256",
          "name": "timestamp",
          "type": "uint256"
        },
        {
          "internalType": "enum PaythenaLoan.LoanStatus",
          "name": "status",
          "type": "uint8"
        }
      ],
      "stateMutability": "view",
      "type": "function"
    },
    {
      "inputs": [
        {
          "internalType": "address",
          "name": "",
          "type": "address"
        }
      ],
      "name": "loans",
      "outputs": [
        {
          "internalType": "uint256",
          "name": "amount",
          "type": "uint256"
        },
        {
          "internalType": "uint256",
          "name": "totalDue",
          "type": "uint256"
        },
        {
          "internalType": "uint256",
          "name": "monthlyPayment",
          "type": "uint256"
        },
        {
          "internalType": "uint256",
          "name": "startDate",
          "type": "uint256"
        },
        {
          "internalType": "uint256",
          "name": "dueDate",
          "type": "uint256"
        },
        {
          "internalType": "uint256",
          "name": "lastPaymentDate",
          "type": "uint256"
        },
        {
          "internalType": "uint256",
          "name": "remainingAmount",
          "type": "uint256"
        },
        {
          "internalType": "uint256",
          "name": "interestRate",
          "type": "uint256"
        },
        {
          "internalType": "enum PaythenaLoan.LoanStatus",
          "name": "status",
          "type": "uint8"
        },
        {
          "internalType": "bytes32",
          "name": "purposeHash",
          "type": "bytes32"
        }
      ],
      "stateMutability": "view",
      "type": "function"
    },
    {
      "inputs": [
        {
          "internalType": "uint256",
          "name": "amount",
          "type": "uint256"
        }
      ],
      "name": "makePayment",
      "outputs": [],
      "stateMutability": "nonpayable",
      "type": "function"
    },
    {
      "inputs": [],
      "name": "pause",
      "outputs": [],
      "stateMutability": "nonpayable",
      "type": "function"
    },
    {
      "inputs": [],
      "name": "paused",
      "outputs": [
        {
          "internalType": "bool",
          "name": "",
          "type": "bool"
        }
      ],
      "stateMutability": "view",
      "type": "function"
    },
    {
      "inputs": [
        {
          "internalType": "address",
          "name": "borrower",
          "type": "address"
        }
      ],
      "name": "processAutomatedRepayment",
      "outputs": [
        {
          "internalType": "bool",
          "name": "",
          "type": "bool"
        }
      ],
      "stateMutability": "nonpayable",
      "type": "function"
    },
    {
      "inputs": [
        {
          "internalType": "bytes32",
          "name": "role",
          "type": "bytes32"
        },
        {
          "internalType": "address",
          "name": "callerConfirmation",
          "type": "address"
        }
      ],
      "name": "renounceRole",
      "outputs": [],
      "stateMutability": "nonpayable",
      "type": "function"
    },
    {
      "inputs": [
        {
          "internalType": "address",
          "name": "",
          "type": "address"
        }
      ],
      "name": "repaymentSchedules",
      "outputs": [
        {
          "internalType": "uint256",
          "name": "amount",
          "type": "uint256"
        },
        {
          "internalType": "uint256",
          "name": "frequency",
          "type": "uint256"
        },
        {
          "internalType": "uint256",
          "name": "nextPaymentDate",
          "type": "uint256"
        },
        {
          "internalType": "uint256",
          "name": "remainingPayments",
          "type": "uint256"
        },
        {
          "internalType": "bool",
          "name": "isActive",
          "type": "bool"
        }
      ],
      "stateMutability": "view",
      "type": "function"
    },
    {
      "inputs": [
        {
          "internalType": "uint256",
          "name": "amount",
          "type": "uint256"
        },
        {
          "internalType": "uint256",
          "name": "duration",
          "type": "uint256"
        },
        {
          "internalType": "string",
          "name": "purpose",
          "type": "string"
        }
      ],
      "name": "requestLoan",
      "outputs": [],
      "stateMutability": "nonpayable",
      "type": "function"
    },
    {
      "inputs": [
        {
          "internalType": "bytes32",
          "name": "role",
          "type": "bytes32"
        },
        {
          "internalType": "address",
          "name": "account",
          "type": "address"
        }
      ],
      "name": "revokeRole",
      "outputs": [],
      "stateMutability": "nonpayable",
      "type": "function"
    },
    {
      "inputs": [
        {
          "internalType": "uint256",
          "name": "frequency",
          "type": "uint256"
        },
        {
          "internalType": "uint256",
          "name": "startDate",
          "type": "uint256"
        }
      ],
      "name": "setupAutomatedRepayment",
      "outputs": [],
      "stateMutability": "nonpayable",
      "type": "function"
    },
    {
      "inputs": [
        {
          "internalType": "bytes4",
          "name": "interfaceId",
          "type": "bytes4"
        }
      ],
      "name": "supportsInterface",
      "outputs": [
        {
          "internalType": "bool",
          "name": "",
          "type": "bool"
        }
      ],
      "stateMutability": "view",
      "type": "function"
    },
    {
      "inputs": [
        {
          "internalType": "address",
          "name": "",
          "type": "address"
        }
      ],
      "name": "totalLoansIssued",
      "outputs": [
        {
          "internalType": "uint256",
          "name": "",
          "type": "uint256"
        }
      ],
      "stateMutability": "view",
      "type": "function"
    },
    {
      "inputs": [],
      "name": "unpause",
      "outputs": [],
      "stateMutability": "nonpayable",
      "type": "function"
    }
  ],
  "transactionHash": "0xfc0714fa605e6ec47c7a2c9b2692ebd2094c65dee915e4e23e7efa601a368129",
  "args": [
    "0x7012FB31F1223A70D5dd78A58Fe7DdD2f28F7E85"
  ],
  "numDeployments": 1,
  "solcInputHash": "dd7f43f006d7b5e17cd30b2a51833282",
  "bytecode": "0x60a06040523480156200001157600080fd5b50604051620025a7380380620025a7833981016040819052620000349162000182565b60016000556002805460ff191690556001600160a01b0381166200009e5760405162461bcd60e51b815260206004820152601460248201527f496e76616c696420636f72652061646472657373000000000000000000000000604482015260640160405180910390fd5b620000ab600033620000eb565b50620000d87fa03a3445a42c88c4c71fab3b69391367d1386136663ed015f42f4322182d454733620000eb565b506001600160a01b0316608052620001b4565b60008281526001602090815260408083206001600160a01b038516845290915281205460ff16620001785760008381526001602081815260408084206001600160a01b0387168086529252808420805460ff19169093179092559051339286917f2f8788117e7eff1d82e926ec794901d17c78024a50270940304540a733656f0d9190a45060016200017c565b5060005b92915050565b6000602082840312156200019557600080fd5b81516001600160a01b0381168114620001ad57600080fd5b9392505050565b6080516123c9620001de6000396000818161059b01528181611b860152611c2f01526123c96000f3fe608060405234801561001057600080fd5b50600436106102115760003560e01c806383baea6311610125578063b045d068116100ad578063d547741f1161007c578063d547741f1461057a578063dbabe5f01461058d578063e80db5db14610596578063e8a7da8e146105bd578063f7e590ee146105e257600080fd5b8063b045d06814610537578063b8ad1c1e1461054a578063c1a287e21461055d578063d3602dc61461056757600080fd5b806391d14854116100f457806391d14854146104d25780639f63f5c3146104e5578063a217fddf146104f8578063a367a3e614610500578063a429ac461461051357600080fd5b806383baea63146104985780638456cb59146104a057806389d99a05146104a85780638f07de56146104b257600080fd5b80633f4ba83a116101a85780635b9634d2116101775780635b9634d2146103a05780635c975abb146103a85780637065ac93146103b357806373b4086b146103dd5780637d01b1651461045857600080fd5b80633f4ba83a1461032b57806342de081b146103335780635114cb5214610366578063525b9fde1461037957600080fd5b80632900ca25116101e45780632900ca25146102845780632f2ff15d146102fa578063316f86391461030f57806336568abe1461031857600080fd5b806301ffc9a7146102165780630d0b2ca61461023e57806314738c8614610257578063248a9ca314610260575b600080fd5b610229610224366004611ef0565b610602565b60405190151581526020015b60405180910390f35b6102496301e1338081565b604051908152602001610235565b61024961012c81565b61024961026e366004611f1a565b6000908152600160208190526040909120015490565b6102d0610292366004611f4a565b6001600160a01b031660009081526007602052604090208054600182015460028301546003840154600490940154929491939092909160ff90911690565b6040805195865260208601949094529284019190915260608301521515608082015260a001610235565b61030d610308366004611f65565b610639565b005b6102496101f481565b61030d610326366004611f65565b610665565b61030d61069d565b61034e73426e7d03f9803dd11cb8616c65b99a3c0afea6de81565b6040516001600160a01b039091168152602001610235565b61030d610374366004611f1a565b6106b3565b6102497fa03a3445a42c88c4c71fab3b69391367d1386136663ed015f42f4322182d454781565b61030d610903565b60025460ff16610229565b6103c66103c1366004611f4a565b61097a565b604080519215158352602083019190915201610235565b6104426103eb366004611f4a565b600360208190526000918252604090912080546001820154600283015493830154600484015460058501546006860154600787015460088801546009909801549698959795969495939492939192909160ff16908a565b6040516102359a99989796959493929190611fc9565b6102d0610466366004611f4a565b600760205260009081526040902080546001820154600283015460038401546004909401549293919290919060ff1685565b610249606481565b61030d6109d1565b61024962278d0081565b6102496104c0366004611f4a565b60056020526000908152604090205481565b6102296104e0366004611f65565b6109e4565b61030d6104f3366004612023565b610a0f565b610249600081565b61022961050e366004611f4a565b610d5d565b610526610521366004611f4a565b610f56565b604051610235959493929190612071565b61030d610545366004611f4a565b611011565b61030d6105583660046120be565b611114565b6102496203f48081565b61030d6105753660046120e0565b61131b565b61030d610588366004611f65565b6114b9565b61024961271081565b61034e7f000000000000000000000000000000000000000000000000000000000000000081565b6105d06105cb366004611f4a565b6114df565b60405161023596959493929190612160565b6102496105f0366004611f4a565b60066020526000908152604090205481565b60006001600160e01b03198216637965db0b60e01b148061063357506301ffc9a760e01b6001600160e01b03198316145b92915050565b6000828152600160208190526040909120015461065581611556565b61065f8383611560565b50505050565b6001600160a01b038116331461068e5760405163334bd91960e11b815260040160405180910390fd5b61069882826115d9565b505050565b60006106a881611556565b6106b0611646565b50565b6106bb611698565b6106c36116c2565b33600090815260036020819052604090912090600882015460ff1660068111156106ef576106ef611f91565b146107325760405162461bcd60e51b815260206004820152600e60248201526d27379030b1ba34bb32903637b0b760911b60448201526064015b60405180910390fd5b600082116107705760405162461bcd60e51b815260206004820152600b60248201526a16995c9bc8185b5bdd5b9d60aa1b6044820152606401610729565b600681015460058201546203f4809061078c9062278d006121a6565b61079691906121a6565b4211156107c75760006127106107ad6064846121b9565b6107b791906121d0565b90506107c381836121a6565b9150505b8083111561080c5760405162461bcd60e51b8152602060048201526012602482015271416d6f756e7420657863656564732064756560701b6044820152606401610729565b61082c73426e7d03f9803dd11cb8616c65b99a3c0afea6de3330866116e6565b8282600601600082825461084091906121f2565b909155505042600583015560068201546000036108b05760088201805460ff1916600417905561087133600161174d565b600182015460405190815233907fd7806bc9facb41d6b807f6861bcab0ca3309b7aea9a1ab1fce129c3fed68977a9060200160405180910390a26108f7565b600682015460405133917fc65a4e529c0450a515882508bea7ee3485fbfdf8436e0bd13dc38dfbc859b1cb916108ee91878252602082015260400190565b60405180910390a25b50506106b06001600055565b61090b611698565b336000908152600760205260409020600481015460ff166109635760405162461bcd60e51b81526020600482015260126024820152714e6f20616374697665207363686564756c6560701b6044820152606401610729565b600401805460ff191690556109786001600055565b565b6001600160a01b0381166000908152600760205260408120600481015482919060ff166109ad5750600093849350915050565b80600201544210156109c55750600093849350915050565b54600194909350915050565b60006109dc81611556565b6106b061182c565b60009182526001602090815260408084206001600160a01b0393909316845291905290205460ff1690565b610a17611698565b610a1f6116c2565b610a2a6000336109e4565b610a625760405162461bcd60e51b81526020600482015260096024820152682737ba1030b236b4b760b91b6044820152606401610729565b60016001600160a01b0383166000908152600460208190526040909120015460ff166006811115610a9557610a95611f91565b14610ad05760405162461bcd60e51b815260206004820152600b60248201526a4e6f742070656e64696e6760a81b6044820152606401610729565b6001600160a01b03821660009081526004602052604081209082610af6576101f4610af8565b825b90506000610b0f8360000154838560010154611869565b9050600062278d008460010154610b2691906121d0565b610b3090836121d0565b905060405180610140016040528085600001548152602001838152602001828152602001428152602001856001015442610b6a91906121a6565b815242602082015260408101849052606081018590526080016003815260200185600201604051610b9b919061223f565b604051809103902081525060036000886001600160a01b03166001600160a01b03168152602001908152602001600020600082015181600001556020820151816001015560408201518160020155606082015181600301556080820151816004015560a0820151816005015560c0820151816006015560e082015181600701556101008201518160080160006101000a81548160ff02191690836006811115610c4657610c46611f91565b021790555061012091909101516009909101558354610c7c9073426e7d03f9803dd11cb8616c65b99a3c0afea6de9088906118b2565b83546001600160a01b03871660009081526005602052604081208054909190610ca69084906121a6565b90915550506001600160a01b03861660009081526004602052604081208181556001810182905590610cdb6002830182611ea2565b5060006003820155600401805460ff19169055835460018501546001600160a01b038816917f3a2fb17990ba9fc92930b56cf93fe97981f8dfdf0f3ff6c90652866495a3b45c91610d2c90426121a6565b604080519283526020830191909152810186905260600160405180910390a250505050610d596001600055565b5050565b6000610d67611698565b610d6f6116c2565b6001600160a01b0382166000908152600760205260409020600481015460ff16610dd05760405162461bcd60e51b81526020600482015260126024820152714e6f20616374697665207363686564756c6560701b6044820152606401610729565b8060020154421015610e165760405162461bcd60e51b815260206004820152600f60248201526e5061796d656e74206e6f742064756560881b6044820152606401610729565b6001600160a01b038316600090815260036020819052604090912090600882015460ff166006811115610e4b57610e4b611f91565b14610e8a5760405162461bcd60e51b815260206004820152600f60248201526e4c6f616e206e6f742061637469766560881b6044820152606401610729565b6000610e9a8584600001546118e3565b90508015610f43578260010154836002016000828254610eba91906121a6565b9091555050600383018054906000610ed1836122de565b91905055508160060154600003610eef5760048301805460ff191690555b8254600683015460408051928352602083019190915242908201526001600160a01b038616907fc8e1a896eb0dca654576ee6ad666cbbb98d986bd52de045b045017a4d77a59639060600160405180910390a25b92505050610f516001600055565b919050565b60046020526000908152604090208054600182015460028301805492939192610f7e90612205565b80601f0160208091040260200160405190810160405280929190818152602001828054610faa90612205565b8015610ff75780601f10610fcc57610100808354040283529160200191610ff7565b820191906000526020600020905b815481529060010190602001808311610fda57829003601f168201915b50505050600383015460049093015491929160ff16905085565b611019611698565b6001600160a01b038116600090815260036020819052604090912090600882015460ff16600681111561104e5761104e611f91565b1461108d5760405162461bcd60e51b815260206004820152600f60248201526e2737ba1030b1ba34bb32903637b0b760891b6044820152606401610729565b6203f48081600401546110a091906121a6565b4211156111095760088101805460ff191660051790556110c182600061174d565b816001600160a01b03167f0be253503c49f8fb02046da3ef57bc2f5f881eb14ba5c2c26b54bf2fb4e7db07826006015460405161110091815260200190565b60405180910390a25b506106b06001600055565b61111c611698565b6111246116c2565b33600090815260036020819052604090912090600882015460ff16600681111561115057611150611f91565b1461118e5760405162461bcd60e51b815260206004820152600e60248201526d27379030b1ba34bb32903637b0b760911b6044820152606401610729565b620151808310156111d75760405162461bcd60e51b8152602060048201526013602482015272119c995c5d595b98de481d1bdbc81cda1bdc9d606a1b6044820152606401610729565b42821161121b5760405162461bcd60e51b8152602060048201526012602482015271496e76616c6964207374617274206461746560701b6044820152606401610729565b6000611234826006015483600701548460040154611b0b565b90506040518060a0016040528082815260200185815260200184815260200182846006015461126391906121d0565b81526001602091820181905233600081815260078452604090819020855181559385015192840192909255908301516002830155606083015160038301556080909201516004909101805460ff191691151591909117905560068301547f5ec36003c8c684eea9bc687c1ed0e127051b919dd8216cc20503468ba6368d9690839087906112f19083906121d0565b6040805193845260208401929092529082015260600160405180910390a25050610d596001600055565b611323611698565b61132b6116c2565b61133433611b82565b600084116113755760405162461bcd60e51b815260206004820152600e60248201526d125b9d985b1a5908185b5bdd5b9d60921b6044820152606401610729565b6301e133808311156113bd5760405162461bcd60e51b81526020600482015260116024820152704475726174696f6e20746f6f206c6f6e6760781b6044820152606401610729565b806113fd5760405162461bcd60e51b815260206004820152601060248201526f141d5c9c1bdcd9481c995c5d5a5c995960821b6044820152606401610729565b3360009081526003602052604081206008015460ff16600681111561142457611424611f91565b146114665760405162461bcd60e51b8152602060048201526012602482015271416374697665206c6f616e2065786973747360701b6044820152606401610729565b336001600160a01b03167f2bdc8f5f9cb762a233a74819626fc55c0b067184bf5078a5a08d2b392f94f01585858585426040516114a79594939291906122f5565b60405180910390a261065f6001600055565b600082815260016020819052604090912001546114d581611556565b61065f83836115d9565b600080600080600080600060036000896001600160a01b03166001600160a01b0316815260200190815260200160002090508060000154816001015482600201548360060154846005015462278d0061153891906121a6565b60089590950154939c929b50909950975091955060ff169350915050565b6106b08133611cdc565b600061156c83836109e4565b6115d15760008381526001602081815260408084206001600160a01b0387168086529252808420805460ff19169093179092559051339286917f2f8788117e7eff1d82e926ec794901d17c78024a50270940304540a733656f0d9190a4506001610633565b506000610633565b60006115e583836109e4565b156115d15760008381526001602090815260408083206001600160a01b0386168085529252808320805460ff1916905551339286917ff6391f5c32d9c69d2a47ea670b442974b53935d1edc7fd64eb21e047a839171b9190a4506001610633565b61164e611d15565b6002805460ff191690557f5db9ee0a495bf2e6ff9c91a7834c1ba4fdd244a5e8aa4e537bd38aeae4b073aa335b6040516001600160a01b03909116815260200160405180910390a1565b6002600054036116bb57604051633ee5aeb560e01b815260040160405180910390fd5b6002600055565b60025460ff16156109785760405163d93c066560e01b815260040160405180910390fd5b6040516001600160a01b03848116602483015283811660448301526064820183905261065f9186918216906323b872dd906084015b604051602081830303815290604052915060e01b6020820180516001600160e01b038381831617835250505050611d38565b6001600160a01b03821660009081526006602052604090205481156117a6576103b6811061177d576103e8611788565b6117888160326121a6565b6001600160a01b0384166000908152600660205260409020556117da565b606481116117b55760006117c0565b6117c06064826121f2565b6001600160a01b0384166000908152600660205260409020555b6001600160a01b0383166000818152600660209081526040918290205491519182527f79c012a0cfae660e09134956bc432c8497ec80e86a3a108d130e8b3fca52b3ad910160405180910390a2505050565b6118346116c2565b6002805460ff191660011790557f62e78cea01bee320cd4e420270b5ea74000d11b0c9f74754ebdbfc544b05a25861167b3390565b60008061187c6127106301e133806121b9565b8361188786886121b9565b61189191906121b9565b61189b91906121d0565b90506118a781866121a6565b9150505b9392505050565b6040516001600160a01b0383811660248301526044820183905261069891859182169063a9059cbb9060640161171b565b6001600160a01b0382166000908152600360208190526040822090600882015460ff16600681111561191757611917611f91565b146119565760405162461bcd60e51b815260206004820152600f60248201526e4c6f616e206e6f742061637469766560881b6044820152606401610729565b600083116119975760405162461bcd60e51b815260206004820152600e60248201526d125b9d985b1a5908185b5bdd5b9d60921b6044820152606401610729565b6040516323b872dd60e01b81526001600160a01b03851660048201523060248201526044810184905273426e7d03f9803dd11cb8616c65b99a3c0afea6de906323b872dd906064016020604051808303816000875af1925050508015611a1a575060408051601f3d908101601f19168201909252611a179181019061233c565b60015b611a28576000915050610633565b5082816006015411611a3b576000611a4b565b828160060154611a4b91906121f2565b60068201819055600003611ab05760088101805460ff1916600417905560018101546040519081526001600160a01b038516907fd7806bc9facb41d6b807f6861bcab0ca3309b7aea9a1ab1fce129c3fed68977a9060200160405180910390a2611b01565b836001600160a01b03167fc65a4e529c0450a515882508bea7ee3485fbfdf8436e0bd13dc38dfbc859b1cb848360060154604051611af8929190918252602082015260400190565b60405180910390a25b6001915050610633565b600080611b1842846121f2565b90506000611b2962278d00836121d0565b905080600003611b3d5785925050506118ab565b6000611b4c612710600c6121b9565b611b5687896121b9565b611b6091906121d0565b905080611b6d83896121d0565b611b7791906121a6565b979650505050505050565b60007f00000000000000000000000000000000000000000000000000000000000000006001600160a01b031663eafb79e26040518163ffffffff1660e01b8152600401602060405180830381865afa158015611be2573d6000803e3d6000fd5b505050506040513d601f19601f82011682018060405250810190611c06919061235e565b604051632474521560e21b8152600481018290526001600160a01b0384811660248301529192507f0000000000000000000000000000000000000000000000000000000000000000909116906391d1485490604401602060405180830381865afa158015611c78573d6000803e3d6000fd5b505050506040513d601f19601f82011682018060405250810190611c9c919061233c565b610d595760405162461bcd60e51b81526020600482015260116024820152702737ba10309031b7b73a3934b13aba37b960791b6044820152606401610729565b611ce682826109e4565b610d595760405163e2517d3f60e01b81526001600160a01b038216600482015260248101839052604401610729565b60025460ff1661097857604051638dfc202b60e01b815260040160405180910390fd5b6000611d4d6001600160a01b03841683611d9b565b90508051600014158015611d72575080806020019051810190611d70919061233c565b155b1561069857604051635274afe760e01b81526001600160a01b0384166004820152602401610729565b60606118ab8383600084600080856001600160a01b03168486604051611dc19190612377565b60006040518083038185875af1925050503d8060008114611dfe576040519150601f19603f3d011682016040523d82523d6000602084013e611e03565b606091505b5091509150611e13868383611e1d565b9695505050505050565b606082611e3257611e2d82611e79565b6118ab565b8151158015611e4957506001600160a01b0384163b155b15611e7257604051639996b31560e01b81526001600160a01b0385166004820152602401610729565b50806118ab565b805115611e895780518082602001fd5b604051630a12f52160e11b815260040160405180910390fd5b508054611eae90612205565b6000825580601f10611ebe575050565b601f0160209004906000526020600020908101906106b091905b80821115611eec5760008155600101611ed8565b5090565b600060208284031215611f0257600080fd5b81356001600160e01b0319811681146118ab57600080fd5b600060208284031215611f2c57600080fd5b5035919050565b80356001600160a01b0381168114610f5157600080fd5b600060208284031215611f5c57600080fd5b6118ab82611f33565b60008060408385031215611f7857600080fd5b82359150611f8860208401611f33565b90509250929050565b634e487b7160e01b600052602160045260246000fd5b60078110611fc557634e487b7160e01b600052602160045260246000fd5b9052565b6000610140820190508b82528a60208301528960408301528860608301528760808301528660a08301528560c08301528460e083015261200d610100830185611fa7565b826101208301529b9a5050505050505050505050565b6000806040838503121561203657600080fd5b61203f83611f33565b946020939093013593505050565b60005b83811015612068578181015183820152602001612050565b50506000910152565b85815284602082015260a06040820152600084518060a084015261209c8160c085016020890161204d565b60608301859052601f01601f1916820160c0019050611e136080830184611fa7565b600080604083850312156120d157600080fd5b50508035926020909101359150565b600080600080606085870312156120f657600080fd5b8435935060208501359250604085013567ffffffffffffffff8082111561211c57600080fd5b818701915087601f83011261213057600080fd5b81358181111561213f57600080fd5b88602082850101111561215157600080fd5b95989497505060200194505050565b600060c082019050878252866020830152856040830152846060830152836080830152611b7760a0830184611fa7565b634e487b7160e01b600052601160045260246000fd5b8082018082111561063357610633612190565b808202811582820484141761063357610633612190565b6000826121ed57634e487b7160e01b600052601260045260246000fd5b500490565b8181038181111561063357610633612190565b600181811c9082168061221957607f821691505b60208210810361223957634e487b7160e01b600052602260045260246000fd5b50919050565b600080835481600182811c91508083168061225b57607f831692505b6020808410820361227a57634e487b7160e01b86526022600452602486fd5b81801561228e57600181146122a3576122d0565b60ff19861689528415158502890196506122d0565b60008a81526020902060005b868110156122c85781548b8201529085019083016122af565b505084890196505b509498975050505050505050565b6000816122ed576122ed612190565b506000190190565b85815284602082015260806040820152826080820152828460a0830137600060a08483010152600060a0601f19601f86011683010190508260608301529695505050505050565b60006020828403121561234e57600080fd5b815180151581146118ab57600080fd5b60006020828403121561237057600080fd5b5051919050565b6000825161238981846020870161204d565b919091019291505056fea2646970667358221220bccac376f830663329e3dab09062621dd5c34fbfc2bc396c2b2c5d36256e57d564736f6c63430008140033",
  "devdoc": {
    "custom:security-contact": "security@paythena.com",
    "errors": {
      "AccessControlBadConfirmation()": [
        {
          "details": "The caller of a function is not the expected one. NOTE: Don't confuse with {AccessControlUnauthorizedAccount}."
        }
      ],
      "AccessControlUnauthorizedAccount(address,bytes32)": [
        {
          "details": "The `account` is missing a role."
        }
      ],
      "AddressEmptyCode(address)": [
        {
          "details": "There's no code at `target` (it is not a contract)."
        }
      ],
      "AddressInsufficientBalance(address)": [
        {
          "details": "The ETH balance of the account is not enough to perform the operation."
        }
      ],
      "EnforcedPause()": [
        {
          "details": "The operation failed because the contract is paused."
        }
      ],
      "ExpectedPause()": [
        {
          "details": "The operation failed because the contract is not paused."
        }
      ],
      "FailedInnerCall()": [
        {
          "details": "A call to an address target failed. The target may have reverted."
        }
      ],
      "ReentrancyGuardReentrantCall()": [
        {
          "details": "Unauthorized reentrant call."
        }
      ],
      "SafeERC20FailedOperation(address)": [
        {
          "details": "An operation with an ERC20 token failed."
        }
      ]
    },
    "events": {
      "Paused(address)": {
        "details": "Emitted when the pause is triggered by `account`."
      },
      "RoleAdminChanged(bytes32,bytes32,bytes32)": {
        "details": "Emitted when `newAdminRole` is set as ``role``'s admin role, replacing `previousAdminRole` `DEFAULT_ADMIN_ROLE` is the starting admin for all roles, despite {RoleAdminChanged} not being emitted signaling this."
      },
      "RoleGranted(bytes32,address,address)": {
        "details": "Emitted when `account` is granted `role`. `sender` is the account that originated the contract call, an admin role bearer except when using {AccessControl-_setupRole}."
      },
      "RoleRevoked(bytes32,address,address)": {
        "details": "Emitted when `account` is revoked `role`. `sender` is the account that originated the contract call:   - if using `revokeRole`, it is the admin role bearer   - if using `renounceRole`, it is the role bearer (i.e. `account`)"
      },
      "Unpaused(address)": {
        "details": "Emitted when the pause is lifted by `account`."
      }
    },
    "kind": "dev",
    "methods": {
      "approveLoan(address,uint256)": {
        "params": {
          "borrower": "Address of the borrower",
          "customInterestRate": "Optional custom interest rate"
        }
      },
      "checkLoanDefault(address)": {
        "params": {
          "borrower": "Address of the borrower"
        }
      },
      "checkRepaymentNeeded(address)": {
        "params": {
          "borrower": "Address of the borrower"
        }
      },
      "constructor": {
        "params": {
          "_core": "Address of PaythenaCore contract"
        }
      },
      "getLoanDetails(address)": {
        "params": {
          "borrower": "Address of the borrower"
        }
      },
      "getRepaymentSchedule(address)": {
        "params": {
          "borrower": "Address of the borrower"
        }
      },
      "getRoleAdmin(bytes32)": {
        "details": "Returns the admin role that controls `role`. See {grantRole} and {revokeRole}. To change a role's admin, use {_setRoleAdmin}."
      },
      "grantRole(bytes32,address)": {
        "details": "Grants `role` to `account`. If `account` had not been already granted `role`, emits a {RoleGranted} event. Requirements: - the caller must have ``role``'s admin role. May emit a {RoleGranted} event."
      },
      "hasRole(bytes32,address)": {
        "details": "Returns `true` if `account` has been granted `role`."
      },
      "makePayment(uint256)": {
        "params": {
          "amount": "Payment amount"
        }
      },
      "pause()": {
        "details": "Only callable by admin"
      },
      "paused()": {
        "details": "Returns true if the contract is paused, and false otherwise."
      },
      "processAutomatedRepayment(address)": {
        "params": {
          "borrower": "Address of the borrower"
        }
      },
      "renounceRole(bytes32,address)": {
        "details": "Revokes `role` from the calling account. Roles are often managed via {grantRole} and {revokeRole}: this function's purpose is to provide a mechanism for accounts to lose their privileges if they are compromised (such as when a trusted device is misplaced). If the calling account had been revoked `role`, emits a {RoleRevoked} event. Requirements: - the caller must be `callerConfirmation`. May emit a {RoleRevoked} event."
      },
      "requestLoan(uint256,uint256,string)": {
        "params": {
          "amount": "Requested loan amount",
          "duration": "Loan duration in seconds",
          "purpose": "Purpose of the loan"
        }
      },
      "revokeRole(bytes32,address)": {
        "details": "Revokes `role` from `account`. If `account` had been granted `role`, emits a {RoleRevoked} event. Requirements: - the caller must have ``role``'s admin role. May emit a {RoleRevoked} event."
      },
      "setupAutomatedRepayment(uint256,uint256)": {
        "params": {
          "frequency": "Repayment frequency in seconds",
          "startDate": "Start date for repayments"
        }
      },
      "supportsInterface(bytes4)": {
        "details": "See {IERC165-supportsInterface}."
      },
      "unpause()": {
        "details": "Only callable by admin"
      }
    },
    "title": "PaythenaLoan",
    "version": 1
  },
  "userdoc": {
    "kind": "user",
    "methods": {
      "approveLoan(address,uint256)": {
        "notice": "Approve a loan application"
      },
      "cancelAutomatedRepayment()": {
        "notice": "Cancel automated repayment schedule"
      },
      "checkLoanDefault(address)": {
        "notice": "Check for and mark defaulted loans"
      },
      "checkRepaymentNeeded(address)": {
        "notice": "Check if repayment is needed"
      },
      "constructor": {
        "notice": "Contract constructor"
      },
      "getLoanDetails(address)": {
        "notice": "Get loan details"
      },
      "getRepaymentSchedule(address)": {
        "notice": "Get repayment schedule details"
      },
      "makePayment(uint256)": {
        "notice": "Make a loan payment"
      },
      "pause()": {
        "notice": "Emergency pause"
      },
      "processAutomatedRepayment(address)": {
        "notice": "Process automated repayment"
      },
      "requestLoan(uint256,uint256,string)": {
        "notice": "Request a loan"
      },
      "setupAutomatedRepayment(uint256,uint256)": {
        "notice": "Set up automated repayment schedule"
      },
      "unpause()": {
        "notice": "Emergency unpause"
      }
    },
    "notice": "Manages salary-backed loans for contributors",
    "version": 1
  },
  "storageLayout": {
    "storage": [
      {
        "astId": 1193,
        "contract": "contracts/PaythenaLoan.sol:PaythenaLoan",
        "label": "_status",
        "offset": 0,
        "slot": "0",
        "type": "t_uint256"
      },
      {
        "astId": 26,
        "contract": "contracts/PaythenaLoan.sol:PaythenaLoan",
        "label": "_roles",
        "offset": 0,
        "slot": "1",
        "type": "t_mapping(t_bytes32,t_struct(RoleData)21_storage)"
      },
      {
        "astId": 1074,
        "contract": "contracts/PaythenaLoan.sol:PaythenaLoan",
        "label": "_paused",
        "offset": 0,
        "slot": "2",
        "type": "t_bool"
      },
      {
        "astId": 3695,
        "contract": "contracts/PaythenaLoan.sol:PaythenaLoan",
        "label": "loans",
        "offset": 0,
        "slot": "3",
        "type": "t_mapping(t_address,t_struct(Loan)3670_storage)"
      },
      {
        "astId": 3700,
        "contract": "contracts/PaythenaLoan.sol:PaythenaLoan",
        "label": "loanApplications",
        "offset": 0,
        "slot": "4",
        "type": "t_mapping(t_address,t_struct(LoanApplication)3682_storage)"
      },
      {
        "astId": 3704,
        "contract": "contracts/PaythenaLoan.sol:PaythenaLoan",
        "label": "totalLoansIssued",
        "offset": 0,
        "slot": "5",
        "type": "t_mapping(t_address,t_uint256)"
      },
      {
        "astId": 3708,
        "contract": "contracts/PaythenaLoan.sol:PaythenaLoan",
        "label": "creditScore",
        "offset": 0,
        "slot": "6",
        "type": "t_mapping(t_address,t_uint256)"
      },
      {
        "astId": 3772,
        "contract": "contracts/PaythenaLoan.sol:PaythenaLoan",
        "label": "repaymentSchedules",
        "offset": 0,
        "slot": "7",
        "type": "t_mapping(t_address,t_struct(RepaymentSchedule)3767_storage)"
      }
    ],
    "types": {
      "t_address": {
        "encoding": "inplace",
        "label": "address",
        "numberOfBytes": "20"
      },
      "t_bool": {
        "encoding": "inplace",
        "label": "bool",
        "numberOfBytes": "1"
      },
      "t_bytes32": {
        "encoding": "inplace",
        "label": "bytes32",
        "numberOfBytes": "32"
      },
      "t_enum(LoanStatus)3690": {
        "encoding": "inplace",
        "label": "enum PaythenaLoan.LoanStatus",
        "numberOfBytes": "1"
      },
      "t_mapping(t_address,t_bool)": {
        "encoding": "mapping",
        "key": "t_address",
        "label": "mapping(address => bool)",
        "numberOfBytes": "32",
        "value": "t_bool"
      },
      "t_mapping(t_address,t_struct(Loan)3670_storage)": {
        "encoding": "mapping",
        "key": "t_address",
        "label": "mapping(address => struct PaythenaLoan.Loan)",
        "numberOfBytes": "32",
        "value": "t_struct(Loan)3670_storage"
      },
      "t_mapping(t_address,t_struct(LoanApplication)3682_storage)": {
        "encoding": "mapping",
        "key": "t_address",
        "label": "mapping(address => struct PaythenaLoan.LoanApplication)",
        "numberOfBytes": "32",
        "value": "t_struct(LoanApplication)3682_storage"
      },
      "t_mapping(t_address,t_struct(RepaymentSchedule)3767_storage)": {
        "encoding": "mapping",
        "key": "t_address",
        "label": "mapping(address => struct PaythenaLoan.RepaymentSchedule)",
        "numberOfBytes": "32",
        "value": "t_struct(RepaymentSchedule)3767_storage"
      },
      "t_mapping(t_address,t_uint256)": {
        "encoding": "mapping",
        "key": "t_address",
        "label": "mapping(address => uint256)",
        "numberOfBytes": "32",
        "value": "t_uint256"
      },
      "t_mapping(t_bytes32,t_struct(RoleData)21_storage)": {
        "encoding": "mapping",
        "key": "t_bytes32",
        "label": "mapping(bytes32 => struct AccessControl.RoleData)",
        "numberOfBytes": "32",
        "value": "t_struct(RoleData)21_storage"
      },
      "t_string_storage": {
        "encoding": "bytes",
        "label": "string",
        "numberOfBytes": "32"
      },
      "t_struct(Loan)3670_storage": {
        "encoding": "inplace",
        "label": "struct PaythenaLoan.Loan",
        "members": [
          {
            "astId": 3650,
            "contract": "contracts/PaythenaLoan.sol:PaythenaLoan",
            "label": "amount",
            "offset": 0,
            "slot": "0",
            "type": "t_uint256"
          },
          {
            "astId": 3652,
            "contract": "contracts/PaythenaLoan.sol:PaythenaLoan",
            "label": "totalDue",
            "offset": 0,
            "slot": "1",
            "type": "t_uint256"
          },
          {
            "astId": 3654,
            "contract": "contracts/PaythenaLoan.sol:PaythenaLoan",
            "label": "monthlyPayment",
            "offset": 0,
            "slot": "2",
            "type": "t_uint256"
          },
          {
            "astId": 3656,
            "contract": "contracts/PaythenaLoan.sol:PaythenaLoan",
            "label": "startDate",
            "offset": 0,
            "slot": "3",
            "type": "t_uint256"
          },
          {
            "astId": 3658,
            "contract": "contracts/PaythenaLoan.sol:PaythenaLoan",
            "label": "dueDate",
            "offset": 0,
            "slot": "4",
            "type": "t_uint256"
          },
          {
            "astId": 3660,
            "contract": "contracts/PaythenaLoan.sol:PaythenaLoan",
            "label": "lastPaymentDate",
            "offset": 0,
            "slot": "5",
            "type": "t_uint256"
          },
          {
            "astId": 3662,
            "contract": "contracts/PaythenaLoan.sol:PaythenaLoan",
            "label": "remainingAmount",
            "offset": 0,
            "slot": "6",
            "type": "t_uint256"
          },
          {
            "astId": 3664,
            "contract": "contracts/PaythenaLoan.sol:PaythenaLoan",
            "label": "interestRate",
            "offset": 0,
            "slot": "7",
            "type": "t_uint256"
          },
          {
            "astId": 3667,
            "contract": "contracts/PaythenaLoan.sol:PaythenaLoan",
            "label": "status",
            "offset": 0,
            "slot": "8",
            "type": "t_enum(LoanStatus)3690"
          },
          {
            "astId": 3669,
            "contract": "contracts/PaythenaLoan.sol:PaythenaLoan",
            "label": "purposeHash",
            "offset": 0,
            "slot": "9",
            "type": "t_bytes32"
          }
        ],
        "numberOfBytes": "320"
      },
      "t_struct(LoanApplication)3682_storage": {
        "encoding": "inplace",
        "label": "struct PaythenaLoan.LoanApplication",
        "members": [
          {
            "astId": 3672,
            "contract": "contracts/PaythenaLoan.sol:PaythenaLoan",
            "label": "requestedAmount",
            "offset": 0,
            "slot": "0",
            "type": "t_uint256"
          },
          {
            "astId": 3674,
            "contract": "contracts/PaythenaLoan.sol:PaythenaLoan",
            "label": "duration",
            "offset": 0,
            "slot": "1",
            "type": "t_uint256"
          },
          {
            "astId": 3676,
            "contract": "contracts/PaythenaLoan.sol:PaythenaLoan",
            "label": "purpose",
            "offset": 0,
            "slot": "2",
            "type": "t_string_storage"
          },
          {
            "astId": 3678,
            "contract": "contracts/PaythenaLoan.sol:PaythenaLoan",
            "label": "timestamp",
            "offset": 0,
            "slot": "3",
            "type": "t_uint256"
          },
          {
            "astId": 3681,
            "contract": "contracts/PaythenaLoan.sol:PaythenaLoan",
            "label": "status",
            "offset": 0,
            "slot": "4",
            "type": "t_enum(LoanStatus)3690"
          }
        ],
        "numberOfBytes": "160"
      },
      "t_struct(RepaymentSchedule)3767_storage": {
        "encoding": "inplace",
        "label": "struct PaythenaLoan.RepaymentSchedule",
        "members": [
          {
            "astId": 3758,
            "contract": "contracts/PaythenaLoan.sol:PaythenaLoan",
            "label": "amount",
            "offset": 0,
            "slot": "0",
            "type": "t_uint256"
          },
          {
            "astId": 3760,
            "contract": "contracts/PaythenaLoan.sol:PaythenaLoan",
            "label": "frequency",
            "offset": 0,
            "slot": "1",
            "type": "t_uint256"
          },
          {
            "astId": 3762,
            "contract": "contracts/PaythenaLoan.sol:PaythenaLoan",
            "label": "nextPaymentDate",
            "offset": 0,
            "slot": "2",
            "type": "t_uint256"
          },
          {
            "astId": 3764,
            "contract": "contracts/PaythenaLoan.sol:PaythenaLoan",
            "label": "remainingPayments",
            "offset": 0,
            "slot": "3",
            "type": "t_uint256"
          },
          {
            "astId": 3766,
            "contract": "contracts/PaythenaLoan.sol:PaythenaLoan",
            "label": "isActive",
            "offset": 0,
            "slot": "4",
            "type": "t_bool"
          }
        ],
        "numberOfBytes": "160"
      },
      "t_struct(RoleData)21_storage": {
        "encoding": "inplace",
        "label": "struct AccessControl.RoleData",
        "members": [
          {
            "astId": 18,
            "contract": "contracts/PaythenaLoan.sol:PaythenaLoan",
            "label": "hasRole",
            "offset": 0,
            "slot": "0",
            "type": "t_mapping(t_address,t_bool)"
          },
          {
            "astId": 20,
            "contract": "contracts/PaythenaLoan.sol:PaythenaLoan",
            "label": "adminRole",
            "offset": 0,
            "slot": "1",
            "type": "t_bytes32"
          }
        ],
        "numberOfBytes": "64"
      },
      "t_uint256": {
        "encoding": "inplace",
        "label": "uint256",
        "numberOfBytes": "32"
      }
    }
  }
}