{
  "address": "0x391FfEB2B58d4c08a484ad21C639D2c7fd793f76",
  "abi": [
    {
      "inputs": [
        {
          "internalType": "address",
          "name": "_core",
          "type": "address"
        }
      ],
      "stateMutability": "nonpayable",
      "type": "constructor"
    },
    {
      "inputs": [],
      "name": "AccessControlBadConfirmation",
      "type": "error"
    },
    {
      "inputs": [
        {
          "internalType": "address",
          "name": "account",
          "type": "address"
        },
        {
          "internalType": "bytes32",
          "name": "neededRole",
          "type": "bytes32"
        }
      ],
      "name": "AccessControlUnauthorizedAccount",
      "type": "error"
    },
    {
      "inputs": [
        {
          "internalType": "address",
          "name": "target",
          "type": "address"
        }
      ],
      "name": "AddressEmptyCode",
      "type": "error"
    },
    {
      "inputs": [
        {
          "internalType": "address",
          "name": "account",
          "type": "address"
        }
      ],
      "name": "AddressInsufficientBalance",
      "type": "error"
    },
    {
      "inputs": [],
      "name": "EnforcedPause",
      "type": "error"
    },
    {
      "inputs": [],
      "name": "ExpectedPause",
      "type": "error"
    },
    {
      "inputs": [],
      "name": "FailedInnerCall",
      "type": "error"
    },
    {
      "inputs": [],
      "name": "ReentrancyGuardReentrantCall",
      "type": "error"
    },
    {
      "inputs": [
        {
          "internalType": "address",
          "name": "token",
          "type": "address"
        }
      ],
      "name": "SafeERC20FailedOperation",
      "type": "error"
    },
    {
      "anonymous": false,
      "inputs": [
        {
          "indexed": true,
          "internalType": "address",
          "name": "user",
          "type": "address"
        },
        {
          "indexed": false,
          "internalType": "uint256",
          "name": "amount",
          "type": "uint256"
        },
        {
          "indexed": false,
          "internalType": "uint256",
          "name": "timestamp",
          "type": "uint256"
        }
      ],
      "name": "EmergencyWithdraw",
      "type": "event"
    },
    {
      "anonymous": false,
      "inputs": [
        {
          "indexed": false,
          "internalType": "address",
          "name": "account",
          "type": "address"
        }
      ],
      "name": "Paused",
      "type": "event"
    },
    {
      "anonymous": false,
      "inputs": [
        {
          "indexed": false,
          "internalType": "uint256",
          "name": "oldRate",
          "type": "uint256"
        },
        {
          "indexed": false,
          "internalType": "uint256",
          "name": "newRate",
          "type": "uint256"
        },
        {
          "indexed": false,
          "internalType": "uint256",
          "name": "timestamp",
          "type": "uint256"
        }
      ],
      "name": "RewardRateUpdated",
      "type": "event"
    },
    {
      "anonymous": false,
      "inputs": [
        {
          "indexed": true,
          "internalType": "address",
          "name": "user",
          "type": "address"
        },
        {
          "indexed": false,
          "internalType": "uint256",
          "name": "amount",
          "type": "uint256"
        },
        {
          "indexed": false,
          "internalType": "uint256",
          "name": "timestamp",
          "type": "uint256"
        }
      ],
      "name": "RewardsClaimed",
      "type": "event"
    },
    {
      "anonymous": false,
      "inputs": [
        {
          "indexed": true,
          "internalType": "bytes32",
          "name": "role",
          "type": "bytes32"
        },
        {
          "indexed": true,
          "internalType": "bytes32",
          "name": "previousAdminRole",
          "type": "bytes32"
        },
        {
          "indexed": true,
          "internalType": "bytes32",
          "name": "newAdminRole",
          "type": "bytes32"
        }
      ],
      "name": "RoleAdminChanged",
      "type": "event"
    },
    {
      "anonymous": false,
      "inputs": [
        {
          "indexed": true,
          "internalType": "bytes32",
          "name": "role",
          "type": "bytes32"
        },
        {
          "indexed": true,
          "internalType": "address",
          "name": "account",
          "type": "address"
        },
        {
          "indexed": true,
          "internalType": "address",
          "name": "sender",
          "type": "address"
        }
      ],
      "name": "RoleGranted",
      "type": "event"
    },
    {
      "anonymous": false,
      "inputs": [
        {
          "indexed": true,
          "internalType": "bytes32",
          "name": "role",
          "type": "bytes32"
        },
        {
          "indexed": true,
          "internalType": "address",
          "name": "account",
          "type": "address"
        },
        {
          "indexed": true,
          "internalType": "address",
          "name": "sender",
          "type": "address"
        }
      ],
      "name": "RoleRevoked",
      "type": "event"
    },
    {
      "anonymous": false,
      "inputs": [
        {
          "indexed": true,
          "internalType": "address",
          "name": "user",
          "type": "address"
        },
        {
          "indexed": false,
          "internalType": "uint256",
          "name": "amount",
          "type": "uint256"
        },
        {
          "indexed": false,
          "internalType": "uint256",
          "name": "timestamp",
          "type": "uint256"
        }
      ],
      "name": "Staked",
      "type": "event"
    },
    {
      "anonymous": false,
      "inputs": [
        {
          "indexed": false,
          "internalType": "address",
          "name": "account",
          "type": "address"
        }
      ],
      "name": "Unpaused",
      "type": "event"
    },
    {
      "anonymous": false,
      "inputs": [
        {
          "indexed": true,
          "internalType": "address",
          "name": "user",
          "type": "address"
        },
        {
          "indexed": false,
          "internalType": "uint256",
          "name": "amount",
          "type": "uint256"
        },
        {
          "indexed": false,
          "internalType": "uint256",
          "name": "timestamp",
          "type": "uint256"
        }
      ],
      "name": "Unstaked",
      "type": "event"
    },
    {
      "inputs": [],
      "name": "DEFAULT_ADMIN_ROLE",
      "outputs": [
        {
          "internalType": "bytes32",
          "name": "",
          "type": "bytes32"
        }
      ],
      "stateMutability": "view",
      "type": "function"
    },
    {
      "inputs": [],
      "name": "MAX_REWARD_RATE",
      "outputs": [
        {
          "internalType": "uint256",
          "name": "",
          "type": "uint256"
        }
      ],
      "stateMutability": "view",
      "type": "function"
    },
    {
      "inputs": [],
      "name": "MAX_STAKE_AMOUNT",
      "outputs": [
        {
          "internalType": "uint256",
          "name": "",
          "type": "uint256"
        }
      ],
      "stateMutability": "view",
      "type": "function"
    },
    {
      "inputs": [],
      "name": "MIN_STAKE_AMOUNT",
      "outputs": [
        {
          "internalType": "uint256",
          "name": "",
          "type": "uint256"
        }
      ],
      "stateMutability": "view",
      "type": "function"
    },
    {
      "inputs": [],
      "name": "REWARD_RATE_DENOMINATOR",
      "outputs": [
        {
          "internalType": "uint256",
          "name": "",
          "type": "uint256"
        }
      ],
      "stateMutability": "view",
      "type": "function"
    },
    {
      "inputs": [],
      "name": "STAKING_MANAGER_ROLE",
      "outputs": [
        {
          "internalType": "bytes32",
          "name": "",
          "type": "bytes32"
        }
      ],
      "stateMutability": "view",
      "type": "function"
    },
    {
      "inputs": [],
      "name": "SUSDE",
      "outputs": [
        {
          "internalType": "contract IERC20",
          "name": "",
          "type": "address"
        }
      ],
      "stateMutability": "view",
      "type": "function"
    },
    {
      "inputs": [],
      "name": "USDE",
      "outputs": [
        {
          "internalType": "contract IERC20",
          "name": "",
          "type": "address"
        }
      ],
      "stateMutability": "view",
      "type": "function"
    },
    {
      "inputs": [],
      "name": "claimRewards",
      "outputs": [],
      "stateMutability": "nonpayable",
      "type": "function"
    },
    {
      "inputs": [],
      "name": "core",
      "outputs": [
        {
          "internalType": "address",
          "name": "",
          "type": "address"
        }
      ],
      "stateMutability": "view",
      "type": "function"
    },
    {
      "inputs": [],
      "name": "emergencyWithdraw",
      "outputs": [],
      "stateMutability": "nonpayable",
      "type": "function"
    },
    {
      "inputs": [
        {
          "internalType": "address",
          "name": "account",
          "type": "address"
        }
      ],
      "name": "getPendingRewards",
      "outputs": [
        {
          "internalType": "uint256",
          "name": "",
          "type": "uint256"
        }
      ],
      "stateMutability": "view",
      "type": "function"
    },
    {
      "inputs": [
        {
          "internalType": "address",
          "name": "account",
          "type": "address"
        }
      ],
      "name": "getRewards",
      "outputs": [
        {
          "internalType": "uint256",
          "name": "",
          "type": "uint256"
        }
      ],
      "stateMutability": "view",
      "type": "function"
    },
    {
      "inputs": [
        {
          "internalType": "bytes32",
          "name": "role",
          "type": "bytes32"
        }
      ],
      "name": "getRoleAdmin",
      "outputs": [
        {
          "internalType": "bytes32",
          "name": "",
          "type": "bytes32"
        }
      ],
      "stateMutability": "view",
      "type": "function"
    },
    {
      "inputs": [
        {
          "internalType": "address",
          "name": "account",
          "type": "address"
        }
      ],
      "name": "getStakedAmount",
      "outputs": [
        {
          "internalType": "uint256",
          "name": "",
          "type": "uint256"
        }
      ],
      "stateMutability": "view",
      "type": "function"
    },
    {
      "inputs": [
        {
          "internalType": "bytes32",
          "name": "role",
          "type": "bytes32"
        },
        {
          "internalType": "address",
          "name": "account",
          "type": "address"
        }
      ],
      "name": "grantRole",
      "outputs": [],
      "stateMutability": "nonpayable",
      "type": "function"
    },
    {
      "inputs": [
        {
          "internalType": "bytes32",
          "name": "role",
          "type": "bytes32"
        },
        {
          "internalType": "address",
          "name": "account",
          "type": "address"
        }
      ],
      "name": "hasRole",
      "outputs": [
        {
          "internalType": "bool",
          "name": "",
          "type": "bool"
        }
      ],
      "stateMutability": "view",
      "type": "function"
    },
    {
      "inputs": [
        {
          "internalType": "address",
          "name": "",
          "type": "address"
        }
      ],
      "name": "lastUpdateTime",
      "outputs": [
        {
          "internalType": "uint256",
          "name": "",
          "type": "uint256"
        }
      ],
      "stateMutability": "view",
      "type": "function"
    },
    {
      "inputs": [],
      "name": "pause",
      "outputs": [],
      "stateMutability": "nonpayable",
      "type": "function"
    },
    {
      "inputs": [],
      "name": "paused",
      "outputs": [
        {
          "internalType": "bool",
          "name": "",
          "type": "bool"
        }
      ],
      "stateMutability": "view",
      "type": "function"
    },
    {
      "inputs": [
        {
          "internalType": "bytes32",
          "name": "role",
          "type": "bytes32"
        },
        {
          "internalType": "address",
          "name": "callerConfirmation",
          "type": "address"
        }
      ],
      "name": "renounceRole",
      "outputs": [],
      "stateMutability": "nonpayable",
      "type": "function"
    },
    {
      "inputs": [
        {
          "internalType": "bytes32",
          "name": "role",
          "type": "bytes32"
        },
        {
          "internalType": "address",
          "name": "account",
          "type": "address"
        }
      ],
      "name": "revokeRole",
      "outputs": [],
      "stateMutability": "nonpayable",
      "type": "function"
    },
    {
      "inputs": [
        {
          "internalType": "address",
          "name": "",
          "type": "address"
        }
      ],
      "name": "rewardBalance",
      "outputs": [
        {
          "internalType": "uint256",
          "name": "",
          "type": "uint256"
        }
      ],
      "stateMutability": "view",
      "type": "function"
    },
    {
      "inputs": [],
      "name": "rewardRate",
      "outputs": [
        {
          "internalType": "uint256",
          "name": "",
          "type": "uint256"
        }
      ],
      "stateMutability": "view",
      "type": "function"
    },
    {
      "inputs": [
        {
          "internalType": "uint256",
          "name": "amount",
          "type": "uint256"
        }
      ],
      "name": "stake",
      "outputs": [],
      "stateMutability": "nonpayable",
      "type": "function"
    },
    {
      "inputs": [
        {
          "internalType": "address",
          "name": "",
          "type": "address"
        }
      ],
      "name": "stakedBalance",
      "outputs": [
        {
          "internalType": "uint256",
          "name": "",
          "type": "uint256"
        }
      ],
      "stateMutability": "view",
      "type": "function"
    },
    {
      "inputs": [
        {
          "internalType": "bytes4",
          "name": "interfaceId",
          "type": "bytes4"
        }
      ],
      "name": "supportsInterface",
      "outputs": [
        {
          "internalType": "bool",
          "name": "",
          "type": "bool"
        }
      ],
      "stateMutability": "view",
      "type": "function"
    },
    {
      "inputs": [],
      "name": "totalStaked",
      "outputs": [
        {
          "internalType": "uint256",
          "name": "",
          "type": "uint256"
        }
      ],
      "stateMutability": "view",
      "type": "function"
    },
    {
      "inputs": [],
      "name": "unpause",
      "outputs": [],
      "stateMutability": "nonpayable",
      "type": "function"
    },
    {
      "inputs": [
        {
          "internalType": "uint256",
          "name": "amount",
          "type": "uint256"
        }
      ],
      "name": "unstake",
      "outputs": [],
      "stateMutability": "nonpayable",
      "type": "function"
    },
    {
      "inputs": [
        {
          "internalType": "uint256",
          "name": "newRate",
          "type": "uint256"
        }
      ],
      "name": "updateRewardRate",
      "outputs": [],
      "stateMutability": "nonpayable",
      "type": "function"
    }
  ],
  "transactionHash": "0x0277799385e4b2a1251dad211bf7258bf182b680a076dad1985da083acd41aa7",
  "args": [
    "0x7012FB31F1223A70D5dd78A58Fe7DdD2f28F7E85"
  ],
  "numDeployments": 1,
  "solcInputHash": "dd7f43f006d7b5e17cd30b2a51833282",
  "bytecode": "0x60a06040526101f46007553480156200001757600080fd5b50604051620014bb380380620014bb8339810160408190526200003a9162000188565b60016000556002805460ff191690556001600160a01b038116620000a45760405162461bcd60e51b815260206004820152601460248201527f496e76616c696420636f72652061646472657373000000000000000000000000604482015260640160405180910390fd5b620000b1600033620000f1565b50620000de7fa6b5d83d32632203555cb9b2c2f68a8d94da48cadd9266ac0d17babedb52ea5b33620000f1565b506001600160a01b0316608052620001ba565b60008281526001602090815260408083206001600160a01b038516845290915281205460ff166200017e5760008381526001602081815260408084206001600160a01b0387168086529252808420805460ff19169093179092559051339286917f2f8788117e7eff1d82e926ec794901d17c78024a50270940304540a733656f0d9190a450600162000182565b5060005b92915050565b6000602082840312156200019b57600080fd5b81516001600160a01b0381168114620001b357600080fd5b9392505050565b6080516112e5620001d6600039600061046f01526112e56000f3fe608060405234801561001057600080fd5b50600436106101e55760003560e01c8063602172671161010f5780639c373dc5116100a2578063d547741f11610071578063d547741f1461044f578063db2e21bc14610462578063f2f4eb261461046a578063f6ed20171461049157600080fd5b80639c373dc5146104185780639ef3a26114610421578063a217fddf14610434578063a694fc3a1461043c57600080fd5b80637b0a47ee116100de5780637b0a47ee146103eb578063817b1cd2146103f45780638456cb59146103fd57806391d148541461040557600080fd5b8063602172671461037957806367b40cf714610399578063718dc3c3146103b957806379ee54f7146103c257600080fd5b806330712109116101875780633f4ba83a116101565780633f4ba83a1461032257806342de081b1461032a5780634da6a556146103455780635c975abb1461036e57600080fd5b806330712109146102ad57806336568abe146102e0578063372500ab146102f35780633937c0b3146102fb57600080fd5b80632ce9aead116101c35780632ce9aead146102545780632e17de78146102745780632f2ff15d146102895780632f92f1f21461029c57600080fd5b806301ffc9a7146101ea578063248a9ca31461021257806327ed718814610244575b600080fd5b6101fd6101f8366004611143565b6104a4565b60405190151581526020015b60405180910390f35b61023661022036600461116d565b6000908152600160208190526040909120015490565b604051908152602001610209565b61023668056bc75e2d6310000081565b6102366102623660046111a2565b60056020526000908152604090205481565b61028761028236600461116d565b6104db565b005b6102876102973660046111bd565b610639565b61023669d3c21bcecceda100000081565b6102c87380f9ec4ba5746d8214b3a9a73cc4390ab0f0e63381565b6040516001600160a01b039091168152602001610209565b6102876102ee3660046111bd565b610665565b61028761069d565b6102367fa6b5d83d32632203555cb9b2c2f68a8d94da48cadd9266ac0d17babedb52ea5b81565b610287610782565b6102c873426e7d03f9803dd11cb8616c65b99a3c0afea6de81565b6102366103533660046111a2565b6001600160a01b031660009081526003602052604090205490565b60025460ff166101fd565b6102366103873660046111a2565b60036020526000908152604090205481565b6102366103a73660046111a2565b60046020526000908152604090205481565b6102366107d081565b6102366103d03660046111a2565b6001600160a01b031660009081526004602052604090205490565b61023660075481565b61023660065481565b610287610795565b6101fd6104133660046111bd565b6107a8565b61023661271081565b61028761042f36600461116d565b6107d3565b610236600081565b61028761044a36600461116d565b61088b565b61028761045d3660046111bd565b610a44565b610287610a6a565b6102c87f000000000000000000000000000000000000000000000000000000000000000081565b61023661049f3660046111a2565b610b46565b60006001600160e01b03198216637965db0b60e01b14806104d557506301ffc9a760e01b6001600160e01b03198316145b92915050565b6104e3610c27565b6104eb610c51565b600081116105355760405162461bcd60e51b81526020600482015260126024820152710416d6f756e74206d757374206265203e20360741b60448201526064015b60405180910390fd5b3360009081526003602052604090205481111561058b5760405162461bcd60e51b8152602060048201526014602482015273496e73756666696369656e742062616c616e636560601b604482015260640161052c565b61059433610c75565b33600090815260036020526040812080548392906105b39084906111ff565b9250508190555080600660008282546105cc91906111ff565b909155506105f1905073426e7d03f9803dd11cb8616c65b99a3c0afea6de3383610d66565b6040805182815242602082015233917f7fc4727e062e336010f2c282598ef5f14facb3de68cf8195c2f23e1454b2b74e91015b60405180910390a26106366001600055565b50565b6000828152600160208190526040909120015461065581610dc5565b61065f8383610dcf565b50505050565b6001600160a01b038116331461068e5760405163334bd91960e11b815260040160405180910390fd5b6106988282610e48565b505050565b6106a5610c27565b6106ad610c51565b6106b633610c75565b336000908152600460205260409020548061070a5760405162461bcd60e51b81526020600482015260146024820152734e6f207265776172647320617661696c61626c6560601b604482015260640161052c565b3360008181526004602052604081205561073a9073426e7d03f9803dd11cb8616c65b99a3c0afea6de9083610d66565b6040805182815242602082015233917fdacbdde355ba930696a362ea6738feb9f8bd52dfb3d81947558fd3217e23e32591015b60405180910390a2506107806001600055565b565b600061078d81610dc5565b610636610eb5565b60006107a081610dc5565b610636610f07565b60009182526001602090815260408084206001600160a01b0393909316845291905290205460ff1690565b7fa6b5d83d32632203555cb9b2c2f68a8d94da48cadd9266ac0d17babedb52ea5b6107fd81610dc5565b6107d082111561083f5760405162461bcd60e51b815260206004820152600d60248201526c0a4c2e8ca40e8dede40d0d2ced609b1b604482015260640161052c565b60078054908390556040805182815260208101859052428183015290517f69155044ae1e4cf9acf985cae44e0d86b5e592e3fb029bc9b39f63b0bdaa4a629181900360600190a1505050565b610893610c27565b61089b610c51565b68056bc75e2d631000008110156108eb5760405162461bcd60e51b8152602060048201526014602482015273416d6f756e742062656c6f77206d696e696d756d60601b604482015260640161052c565b69d3c21bcecceda100000081111561093c5760405162461bcd60e51b8152602060048201526014602482015273416d6f756e742061626f7665206d6178696d756d60601b604482015260640161052c565b61095269d3c21bcecceda10000006103e8611212565b816006546109609190611229565b11156109a75760405162461bcd60e51b8152602060048201526016602482015275141bdbdb0818d85c1858da5d1e48195e18d95959195960521b604482015260640161052c565b6109b033610c75565b6109d073426e7d03f9803dd11cb8616c65b99a3c0afea6de333084610f44565b33600090815260036020526040812080548392906109ef908490611229565b925050819055508060066000828254610a089190611229565b90915550506040805182815242602082015233917f1449c6dd7851abc30abf37f57715f492010519147cc2652fbc38202c18a6ee909101610624565b60008281526001602081905260409091200154610a6081610dc5565b61065f8383610e48565b610a72610c27565b3360009081526003602052604090205480610ac65760405162461bcd60e51b81526020600482015260146024820152734e6f207374616b6520746f20776974686472617760601b604482015260640161052c565b33600090815260036020526040812081905560068054839290610aea9084906111ff565b90915550610b0f905073426e7d03f9803dd11cb8616c65b99a3c0afea6de3383610d66565b6040805182815242602082015233917fbb757047c2b5f3974fe26b7c10f732e7bce710b0952a71082702781e62ae0595910161076d565b6001600160a01b0381166000908152600560205260408120548190610b6b90426111ff565b9050801580610b9057506001600160a01b038316600090815260036020526040902054155b15610bb25750506001600160a01b031660009081526004602052604090205490565b610bc26127106301e13380611212565b6007546001600160a01b0385166000908152600360205260409020548391610be991611212565b610bf39190611212565b610bfd919061123c565b6001600160a01b038416600090815260046020526040902054610c209190611229565b9392505050565b600260005403610c4a57604051633ee5aeb560e01b815260040160405180910390fd5b6002600055565b60025460ff16156107805760405163d93c066560e01b815260040160405180910390fd5b6001600160a01b038116600090815260056020526040812054610c9890426111ff565b9050600081118015610cc157506001600160a01b03821660009081526003602052604090205415155b15610d62576000610cd86127106301e13380611212565b6007546001600160a01b0385166000908152600360205260409020548491610cff91611212565b610d099190611212565b610d13919061123c565b6001600160a01b038416600090815260046020526040812080549293508392909190610d40908490611229565b9091555050506001600160a01b03821660009081526005602052604090204290555b5050565b6040516001600160a01b0383811660248301526044820183905261069891859182169063a9059cbb906064015b604051602081830303815290604052915060e01b6020820180516001600160e01b038381831617835250505050610f7d565b6106368133610fe0565b6000610ddb83836107a8565b610e405760008381526001602081815260408084206001600160a01b0387168086529252808420805460ff19169093179092559051339286917f2f8788117e7eff1d82e926ec794901d17c78024a50270940304540a733656f0d9190a45060016104d5565b5060006104d5565b6000610e5483836107a8565b15610e405760008381526001602090815260408083206001600160a01b0386168085529252808320805460ff1916905551339286917ff6391f5c32d9c69d2a47ea670b442974b53935d1edc7fd64eb21e047a839171b9190a45060016104d5565b610ebd611019565b6002805460ff191690557f5db9ee0a495bf2e6ff9c91a7834c1ba4fdd244a5e8aa4e537bd38aeae4b073aa335b6040516001600160a01b03909116815260200160405180910390a1565b610f0f610c51565b6002805460ff191660011790557f62e78cea01bee320cd4e420270b5ea74000d11b0c9f74754ebdbfc544b05a258610eea3390565b6040516001600160a01b03848116602483015283811660448301526064820183905261065f9186918216906323b872dd90608401610d93565b6000610f926001600160a01b0384168361103c565b90508051600014158015610fb7575080806020019051810190610fb5919061125e565b155b1561069857604051635274afe760e01b81526001600160a01b038416600482015260240161052c565b610fea82826107a8565b610d625760405163e2517d3f60e01b81526001600160a01b03821660048201526024810183905260440161052c565b60025460ff1661078057604051638dfc202b60e01b815260040160405180910390fd5b6060610c208383600084600080856001600160a01b031684866040516110629190611280565b60006040518083038185875af1925050503d806000811461109f576040519150601f19603f3d011682016040523d82523d6000602084013e6110a4565b606091505b50915091506110b48683836110be565b9695505050505050565b6060826110d3576110ce8261111a565b610c20565b81511580156110ea57506001600160a01b0384163b155b1561111357604051639996b31560e01b81526001600160a01b038516600482015260240161052c565b5080610c20565b80511561112a5780518082602001fd5b604051630a12f52160e11b815260040160405180910390fd5b60006020828403121561115557600080fd5b81356001600160e01b031981168114610c2057600080fd5b60006020828403121561117f57600080fd5b5035919050565b80356001600160a01b038116811461119d57600080fd5b919050565b6000602082840312156111b457600080fd5b610c2082611186565b600080604083850312156111d057600080fd5b823591506111e060208401611186565b90509250929050565b634e487b7160e01b600052601160045260246000fd5b818103818111156104d5576104d56111e9565b80820281158282048414176104d5576104d56111e9565b808201808211156104d5576104d56111e9565b60008261125957634e487b7160e01b600052601260045260246000fd5b500490565b60006020828403121561127057600080fd5b81518015158114610c2057600080fd5b6000825160005b818110156112a15760208186018101518583015201611287565b50600092019182525091905056fea2646970667358221220253b5f862e8cd28896178582d10e92dbb484ee844cccb698cf818d8425a7fe0064736f6c63430008140033",
  "devdoc": {
    "details": "Implements ReentrancyGuard, AccessControl, and Pausable for security",
    "errors": {
      "AccessControlBadConfirmation()": [
        {
          "details": "The caller of a function is not the expected one. NOTE: Don't confuse with {AccessControlUnauthorizedAccount}."
        }
      ],
      "AccessControlUnauthorizedAccount(address,bytes32)": [
        {
          "details": "The `account` is missing a role."
        }
      ],
      "AddressEmptyCode(address)": [
        {
          "details": "There's no code at `target` (it is not a contract)."
        }
      ],
      "AddressInsufficientBalance(address)": [
        {
          "details": "The ETH balance of the account is not enough to perform the operation."
        }
      ],
      "EnforcedPause()": [
        {
          "details": "The operation failed because the contract is paused."
        }
      ],
      "ExpectedPause()": [
        {
          "details": "The operation failed because the contract is not paused."
        }
      ],
      "FailedInnerCall()": [
        {
          "details": "A call to an address target failed. The target may have reverted."
        }
      ],
      "ReentrancyGuardReentrantCall()": [
        {
          "details": "Unauthorized reentrant call."
        }
      ],
      "SafeERC20FailedOperation(address)": [
        {
          "details": "An operation with an ERC20 token failed."
        }
      ]
    },
    "events": {
      "Paused(address)": {
        "details": "Emitted when the pause is triggered by `account`."
      },
      "RoleAdminChanged(bytes32,bytes32,bytes32)": {
        "details": "Emitted when `newAdminRole` is set as ``role``'s admin role, replacing `previousAdminRole` `DEFAULT_ADMIN_ROLE` is the starting admin for all roles, despite {RoleAdminChanged} not being emitted signaling this."
      },
      "RoleGranted(bytes32,address,address)": {
        "details": "Emitted when `account` is granted `role`. `sender` is the account that originated the contract call, an admin role bearer except when using {AccessControl-_setupRole}."
      },
      "RoleRevoked(bytes32,address,address)": {
        "details": "Emitted when `account` is revoked `role`. `sender` is the account that originated the contract call:   - if using `revokeRole`, it is the admin role bearer   - if using `renounceRole`, it is the role bearer (i.e. `account`)"
      },
      "Unpaused(address)": {
        "details": "Emitted when the pause is lifted by `account`."
      }
    },
    "kind": "dev",
    "methods": {
      "constructor": {
        "params": {
          "_core": "The core contract address"
        }
      },
      "getRoleAdmin(bytes32)": {
        "details": "Returns the admin role that controls `role`. See {grantRole} and {revokeRole}. To change a role's admin, use {_setRoleAdmin}."
      },
      "grantRole(bytes32,address)": {
        "details": "Grants `role` to `account`. If `account` had not been already granted `role`, emits a {RoleGranted} event. Requirements: - the caller must have ``role``'s admin role. May emit a {RoleGranted} event."
      },
      "hasRole(bytes32,address)": {
        "details": "Returns `true` if `account` has been granted `role`."
      },
      "paused()": {
        "details": "Returns true if the contract is paused, and false otherwise."
      },
      "renounceRole(bytes32,address)": {
        "details": "Revokes `role` from the calling account. Roles are often managed via {grantRole} and {revokeRole}: this function's purpose is to provide a mechanism for accounts to lose their privileges if they are compromised (such as when a trusted device is misplaced). If the calling account had been revoked `role`, emits a {RoleRevoked} event. Requirements: - the caller must be `callerConfirmation`. May emit a {RoleRevoked} event."
      },
      "revokeRole(bytes32,address)": {
        "details": "Revokes `role` from `account`. If `account` had been granted `role`, emits a {RoleRevoked} event. Requirements: - the caller must have ``role``'s admin role. May emit a {RoleRevoked} event."
      },
      "stake(uint256)": {
        "params": {
          "amount": "Amount to stake"
        }
      },
      "supportsInterface(bytes4)": {
        "details": "See {IERC165-supportsInterface}."
      },
      "unstake(uint256)": {
        "params": {
          "amount": "Amount to unstake"
        }
      },
      "updateRewardRate(uint256)": {
        "params": {
          "newRate": "New reward rate (base 10000)"
        }
      }
    },
    "title": "PaythenaStaking",
    "version": 1
  },
  "userdoc": {
    "kind": "user",
    "methods": {
      "claimRewards()": {
        "notice": "Claim accumulated rewards"
      },
      "constructor": {
        "notice": "Contract constructor"
      },
      "emergencyWithdraw()": {
        "notice": "Emergency withdraw in case of contract issues"
      },
      "stake(uint256)": {
        "notice": "Stake USDe tokens"
      },
      "unstake(uint256)": {
        "notice": "Unstake USDe tokens"
      },
      "updateRewardRate(uint256)": {
        "notice": "Update reward rate"
      }
    },
    "notice": "Handles staking of USDe tokens and reward distribution",
    "version": 1
  },
  "storageLayout": {
    "storage": [
      {
        "astId": 1193,
        "contract": "contracts/PaythenaStaking.sol:PaythenaStaking",
        "label": "_status",
        "offset": 0,
        "slot": "0",
        "type": "t_uint256"
      },
      {
        "astId": 26,
        "contract": "contracts/PaythenaStaking.sol:PaythenaStaking",
        "label": "_roles",
        "offset": 0,
        "slot": "1",
        "type": "t_mapping(t_bytes32,t_struct(RoleData)21_storage)"
      },
      {
        "astId": 1074,
        "contract": "contracts/PaythenaStaking.sol:PaythenaStaking",
        "label": "_paused",
        "offset": 0,
        "slot": "2",
        "type": "t_bool"
      },
      {
        "astId": 4898,
        "contract": "contracts/PaythenaStaking.sol:PaythenaStaking",
        "label": "stakedBalance",
        "offset": 0,
        "slot": "3",
        "type": "t_mapping(t_address,t_uint256)"
      },
      {
        "astId": 4902,
        "contract": "contracts/PaythenaStaking.sol:PaythenaStaking",
        "label": "rewardBalance",
        "offset": 0,
        "slot": "4",
        "type": "t_mapping(t_address,t_uint256)"
      },
      {
        "astId": 4906,
        "contract": "contracts/PaythenaStaking.sol:PaythenaStaking",
        "label": "lastUpdateTime",
        "offset": 0,
        "slot": "5",
        "type": "t_mapping(t_address,t_uint256)"
      },
      {
        "astId": 4908,
        "contract": "contracts/PaythenaStaking.sol:PaythenaStaking",
        "label": "totalStaked",
        "offset": 0,
        "slot": "6",
        "type": "t_uint256"
      },
      {
        "astId": 4911,
        "contract": "contracts/PaythenaStaking.sol:PaythenaStaking",
        "label": "rewardRate",
        "offset": 0,
        "slot": "7",
        "type": "t_uint256"
      }
    ],
    "types": {
      "t_address": {
        "encoding": "inplace",
        "label": "address",
        "numberOfBytes": "20"
      },
      "t_bool": {
        "encoding": "inplace",
        "label": "bool",
        "numberOfBytes": "1"
      },
      "t_bytes32": {
        "encoding": "inplace",
        "label": "bytes32",
        "numberOfBytes": "32"
      },
      "t_mapping(t_address,t_bool)": {
        "encoding": "mapping",
        "key": "t_address",
        "label": "mapping(address => bool)",
        "numberOfBytes": "32",
        "value": "t_bool"
      },
      "t_mapping(t_address,t_uint256)": {
        "encoding": "mapping",
        "key": "t_address",
        "label": "mapping(address => uint256)",
        "numberOfBytes": "32",
        "value": "t_uint256"
      },
      "t_mapping(t_bytes32,t_struct(RoleData)21_storage)": {
        "encoding": "mapping",
        "key": "t_bytes32",
        "label": "mapping(bytes32 => struct AccessControl.RoleData)",
        "numberOfBytes": "32",
        "value": "t_struct(RoleData)21_storage"
      },
      "t_struct(RoleData)21_storage": {
        "encoding": "inplace",
        "label": "struct AccessControl.RoleData",
        "members": [
          {
            "astId": 18,
            "contract": "contracts/PaythenaStaking.sol:PaythenaStaking",
            "label": "hasRole",
            "offset": 0,
            "slot": "0",
            "type": "t_mapping(t_address,t_bool)"
          },
          {
            "astId": 20,
            "contract": "contracts/PaythenaStaking.sol:PaythenaStaking",
            "label": "adminRole",
            "offset": 0,
            "slot": "1",
            "type": "t_bytes32"
          }
        ],
        "numberOfBytes": "64"
      },
      "t_uint256": {
        "encoding": "inplace",
        "label": "uint256",
        "numberOfBytes": "32"
      }
    }
  }
}