{
  "address": "0xcC16052C70f7188DC724D420Fc6fb284026877f7",
  "abi": [
    {
      "inputs": [
        {
          "internalType": "address",
          "name": "_stakingContract",
          "type": "address"
        },
        {
          "internalType": "address",
          "name": "_loanContract",
          "type": "address"
        }
      ],
      "stateMutability": "nonpayable",
      "type": "constructor"
    },
    {
      "inputs": [],
      "name": "AccessControlBadConfirmation",
      "type": "error"
    },
    {
      "inputs": [
        {
          "internalType": "address",
          "name": "account",
          "type": "address"
        },
        {
          "internalType": "bytes32",
          "name": "neededRole",
          "type": "bytes32"
        }
      ],
      "name": "AccessControlUnauthorizedAccount",
      "type": "error"
    },
    {
      "inputs": [
        {
          "internalType": "address",
          "name": "target",
          "type": "address"
        }
      ],
      "name": "AddressEmptyCode",
      "type": "error"
    },
    {
      "inputs": [
        {
          "internalType": "address",
          "name": "account",
          "type": "address"
        }
      ],
      "name": "AddressInsufficientBalance",
      "type": "error"
    },
    {
      "inputs": [],
      "name": "CompanyAlreadyRegistered",
      "type": "error"
    },
    {
      "inputs": [],
      "name": "CompanyNotActive",
      "type": "error"
    },
    {
      "inputs": [],
      "name": "ContributorNotActive",
      "type": "error"
    },
    {
      "inputs": [],
      "name": "EnforcedPause",
      "type": "error"
    },
    {
      "inputs": [],
      "name": "ExpectedPause",
      "type": "error"
    },
    {
      "inputs": [],
      "name": "FailedInnerCall",
      "type": "error"
    },
    {
      "inputs": [],
      "name": "InsufficientBalance",
      "type": "error"
    },
    {
      "inputs": [],
      "name": "InvalidAddress",
      "type": "error"
    },
    {
      "inputs": [],
      "name": "InvalidAmount",
      "type": "error"
    },
    {
      "inputs": [],
      "name": "InvalidContributor",
      "type": "error"
    },
    {
      "inputs": [],
      "name": "InvalidFrequency",
      "type": "error"
    },
    {
      "inputs": [],
      "name": "PaymentAlreadyProcessed",
      "type": "error"
    },
    {
      "inputs": [],
      "name": "ReentrancyGuardReentrantCall",
      "type": "error"
    },
    {
      "inputs": [
        {
          "internalType": "address",
          "name": "token",
          "type": "address"
        }
      ],
      "name": "SafeERC20FailedOperation",
      "type": "error"
    },
    {
      "inputs": [],
      "name": "UnauthorizedAccess",
      "type": "error"
    },
    {
      "anonymous": false,
      "inputs": [
        {
          "indexed": true,
          "internalType": "address",
          "name": "oldContract",
          "type": "address"
        },
        {
          "indexed": true,
          "internalType": "address",
          "name": "newContract",
          "type": "address"
        }
      ],
      "name": "AutomationContractUpdated",
      "type": "event"
    },
    {
      "anonymous": false,
      "inputs": [
        {
          "indexed": true,
          "internalType": "address",
          "name": "company",
          "type": "address"
        },
        {
          "indexed": false,
          "internalType": "string",
          "name": "name",
          "type": "string"
        },
        {
          "indexed": false,
          "internalType": "uint256",
          "name": "timestamp",
          "type": "uint256"
        }
      ],
      "name": "CompanyRegistered",
      "type": "event"
    },
    {
      "anonymous": false,
      "inputs": [
        {
          "indexed": true,
          "internalType": "address",
          "name": "company",
          "type": "address"
        },
        {
          "indexed": true,
          "internalType": "address",
          "name": "contributor",
          "type": "address"
        },
        {
          "indexed": false,
          "internalType": "string",
          "name": "name",
          "type": "string"
        },
        {
          "indexed": false,
          "internalType": "uint256",
          "name": "salary",
          "type": "uint256"
        },
        {
          "indexed": false,
          "internalType": "uint256",
          "name": "timestamp",
          "type": "uint256"
        }
      ],
      "name": "ContributorAdded",
      "type": "event"
    },
    {
      "anonymous": false,
      "inputs": [
        {
          "indexed": true,
          "internalType": "address",
          "name": "company",
          "type": "address"
        },
        {
          "indexed": true,
          "internalType": "address",
          "name": "contributor",
          "type": "address"
        },
        {
          "indexed": false,
          "internalType": "uint256",
          "name": "timestamp",
          "type": "uint256"
        }
      ],
      "name": "ContributorRemoved",
      "type": "event"
    },
    {
      "anonymous": false,
      "inputs": [
        {
          "indexed": true,
          "internalType": "address",
          "name": "company",
          "type": "address"
        },
        {
          "indexed": false,
          "internalType": "uint256",
          "name": "amount",
          "type": "uint256"
        },
        {
          "indexed": false,
          "internalType": "uint256",
          "name": "timestamp",
          "type": "uint256"
        }
      ],
      "name": "FundsDeposited",
      "type": "event"
    },
    {
      "anonymous": false,
      "inputs": [
        {
          "indexed": true,
          "internalType": "address",
          "name": "company",
          "type": "address"
        },
        {
          "indexed": false,
          "internalType": "uint256",
          "name": "amount",
          "type": "uint256"
        },
        {
          "indexed": false,
          "internalType": "uint256",
          "name": "timestamp",
          "type": "uint256"
        }
      ],
      "name": "FundsWithdrawn",
      "type": "event"
    },
    {
      "anonymous": false,
      "inputs": [
        {
          "indexed": false,
          "internalType": "string",
          "name": "reason",
          "type": "string"
        },
        {
          "indexed": false,
          "internalType": "bytes",
          "name": "data",
          "type": "bytes"
        }
      ],
      "name": "IntegrationError",
      "type": "event"
    },
    {
      "anonymous": false,
      "inputs": [
        {
          "indexed": false,
          "internalType": "address",
          "name": "account",
          "type": "address"
        }
      ],
      "name": "Paused",
      "type": "event"
    },
    {
      "anonymous": false,
      "inputs": [
        {
          "indexed": true,
          "internalType": "uint256",
          "name": "paymentId",
          "type": "uint256"
        },
        {
          "indexed": true,
          "internalType": "address",
          "name": "company",
          "type": "address"
        },
        {
          "indexed": true,
          "internalType": "address",
          "name": "contributor",
          "type": "address"
        },
        {
          "indexed": false,
          "internalType": "uint256",
          "name": "amount",
          "type": "uint256"
        },
        {
          "indexed": false,
          "internalType": "bytes32",
          "name": "txHash",
          "type": "bytes32"
        },
        {
          "indexed": false,
          "internalType": "uint256",
          "name": "timestamp",
          "type": "uint256"
        }
      ],
      "name": "PaymentProcessed",
      "type": "event"
    },
    {
      "anonymous": false,
      "inputs": [
        {
          "indexed": true,
          "internalType": "bytes32",
          "name": "role",
          "type": "bytes32"
        },
        {
          "indexed": true,
          "internalType": "bytes32",
          "name": "previousAdminRole",
          "type": "bytes32"
        },
        {
          "indexed": true,
          "internalType": "bytes32",
          "name": "newAdminRole",
          "type": "bytes32"
        }
      ],
      "name": "RoleAdminChanged",
      "type": "event"
    },
    {
      "anonymous": false,
      "inputs": [
        {
          "indexed": true,
          "internalType": "bytes32",
          "name": "role",
          "type": "bytes32"
        },
        {
          "indexed": true,
          "internalType": "address",
          "name": "account",
          "type": "address"
        },
        {
          "indexed": true,
          "internalType": "address",
          "name": "sender",
          "type": "address"
        }
      ],
      "name": "RoleGranted",
      "type": "event"
    },
    {
      "anonymous": false,
      "inputs": [
        {
          "indexed": true,
          "internalType": "bytes32",
          "name": "role",
          "type": "bytes32"
        },
        {
          "indexed": true,
          "internalType": "address",
          "name": "account",
          "type": "address"
        },
        {
          "indexed": true,
          "internalType": "address",
          "name": "sender",
          "type": "address"
        }
      ],
      "name": "RoleRevoked",
      "type": "event"
    },
    {
      "anonymous": false,
      "inputs": [
        {
          "indexed": true,
          "internalType": "address",
          "name": "company",
          "type": "address"
        },
        {
          "indexed": true,
          "internalType": "address",
          "name": "contributor",
          "type": "address"
        },
        {
          "indexed": false,
          "internalType": "uint256",
          "name": "amount",
          "type": "uint256"
        },
        {
          "indexed": false,
          "internalType": "uint256",
          "name": "timestamp",
          "type": "uint256"
        }
      ],
      "name": "SalaryProcessed",
      "type": "event"
    },
    {
      "anonymous": false,
      "inputs": [
        {
          "indexed": false,
          "internalType": "address",
          "name": "account",
          "type": "address"
        }
      ],
      "name": "Unpaused",
      "type": "event"
    },
    {
      "inputs": [],
      "name": "AUTOMATION_ROLE",
      "outputs": [
        {
          "internalType": "bytes32",
          "name": "",
          "type": "bytes32"
        }
      ],
      "stateMutability": "view",
      "type": "function"
    },
    {
      "inputs": [],
      "name": "COMPANY_ROLE",
      "outputs": [
        {
          "internalType": "bytes32",
          "name": "",
          "type": "bytes32"
        }
      ],
      "stateMutability": "view",
      "type": "function"
    },
    {
      "inputs": [],
      "name": "CONTRIBUTOR_ROLE",
      "outputs": [
        {
          "internalType": "bytes32",
          "name": "",
          "type": "bytes32"
        }
      ],
      "stateMutability": "view",
      "type": "function"
    },
    {
      "inputs": [],
      "name": "DEFAULT_ADMIN_ROLE",
      "outputs": [
        {
          "internalType": "bytes32",
          "name": "",
          "type": "bytes32"
        }
      ],
      "stateMutability": "view",
      "type": "function"
    },
    {
      "inputs": [],
      "name": "INTEGRATION_ROLE",
      "outputs": [
        {
          "internalType": "bytes32",
          "name": "",
          "type": "bytes32"
        }
      ],
      "stateMutability": "view",
      "type": "function"
    },
    {
      "inputs": [],
      "name": "MAX_PAYMENT_FREQUENCY",
      "outputs": [
        {
          "internalType": "uint256",
          "name": "",
          "type": "uint256"
        }
      ],
      "stateMutability": "view",
      "type": "function"
    },
    {
      "inputs": [],
      "name": "MAX_PAYMENT_HISTORY",
      "outputs": [
        {
          "internalType": "uint256",
          "name": "",
          "type": "uint256"
        }
      ],
      "stateMutability": "view",
      "type": "function"
    },
    {
      "inputs": [],
      "name": "MIN_PAYMENT_FREQUENCY",
      "outputs": [
        {
          "internalType": "uint256",
          "name": "",
          "type": "uint256"
        }
      ],
      "stateMutability": "view",
      "type": "function"
    },
    {
      "inputs": [],
      "name": "USDE",
      "outputs": [
        {
          "internalType": "contract IERC20",
          "name": "",
          "type": "address"
        }
      ],
      "stateMutability": "view",
      "type": "function"
    },
    {
      "inputs": [
        {
          "internalType": "address",
          "name": "contributor",
          "type": "address"
        },
        {
          "internalType": "string",
          "name": "name",
          "type": "string"
        },
        {
          "internalType": "uint256",
          "name": "salary",
          "type": "uint256"
        },
        {
          "internalType": "uint256",
          "name": "paymentFrequency",
          "type": "uint256"
        }
      ],
      "name": "addContributor",
      "outputs": [],
      "stateMutability": "nonpayable",
      "type": "function"
    },
    {
      "inputs": [],
      "name": "automationContract",
      "outputs": [
        {
          "internalType": "contract IPaythenaAutomation",
          "name": "",
          "type": "address"
        }
      ],
      "stateMutability": "view",
      "type": "function"
    },
    {
      "inputs": [
        {
          "internalType": "address",
          "name": "company",
          "type": "address"
        }
      ],
      "name": "canProcessPayment",
      "outputs": [
        {
          "internalType": "bool",
          "name": "",
          "type": "bool"
        }
      ],
      "stateMutability": "view",
      "type": "function"
    },
    {
      "inputs": [],
      "name": "checkIntegrationStatus",
      "outputs": [
        {
          "internalType": "bool",
          "name": "stakingActive",
          "type": "bool"
        },
        {
          "internalType": "bool",
          "name": "loanActive",
          "type": "bool"
        },
        {
          "internalType": "bool",
          "name": "automationActive",
          "type": "bool"
        }
      ],
      "stateMutability": "view",
      "type": "function"
    },
    {
      "inputs": [
        {
          "internalType": "address",
          "name": "",
          "type": "address"
        }
      ],
      "name": "companies",
      "outputs": [
        {
          "internalType": "string",
          "name": "name",
          "type": "string"
        },
        {
          "internalType": "uint256",
          "name": "balance",
          "type": "uint256"
        },
        {
          "internalType": "uint256",
          "name": "contributorCount",
          "type": "uint256"
        },
        {
          "internalType": "bool",
          "name": "isActive",
          "type": "bool"
        },
        {
          "internalType": "address",
          "name": "admin",
          "type": "address"
        }
      ],
      "stateMutability": "view",
      "type": "function"
    },
    {
      "inputs": [
        {
          "internalType": "address",
          "name": "",
          "type": "address"
        }
      ],
      "name": "contributorToCompany",
      "outputs": [
        {
          "internalType": "address",
          "name": "",
          "type": "address"
        }
      ],
      "stateMutability": "view",
      "type": "function"
    },
    {
      "inputs": [
        {
          "internalType": "uint256",
          "name": "amount",
          "type": "uint256"
        }
      ],
      "name": "deposit",
      "outputs": [],
      "stateMutability": "nonpayable",
      "type": "function"
    },
    {
      "inputs": [],
      "name": "getActiveCompanies",
      "outputs": [
        {
          "internalType": "address[]",
          "name": "",
          "type": "address[]"
        }
      ],
      "stateMutability": "view",
      "type": "function"
    },
    {
      "inputs": [
        {
          "internalType": "address",
          "name": "company",
          "type": "address"
        }
      ],
      "name": "getActiveContributors",
      "outputs": [
        {
          "internalType": "address[]",
          "name": "",
          "type": "address[]"
        }
      ],
      "stateMutability": "view",
      "type": "function"
    },
    {
      "inputs": [],
      "name": "getAutomationInfo",
      "outputs": [
        {
          "internalType": "uint256",
          "name": "interval",
          "type": "uint256"
        },
        {
          "internalType": "uint256",
          "name": "batchSize",
          "type": "uint256"
        },
        {
          "internalType": "uint256",
          "name": "lastProcessed",
          "type": "uint256"
        },
        {
          "internalType": "bool",
          "name": "isActive",
          "type": "bool"
        }
      ],
      "stateMutability": "view",
      "type": "function"
    },
    {
      "inputs": [
        {
          "internalType": "address",
          "name": "company",
          "type": "address"
        }
      ],
      "name": "getCompanyDetails",
      "outputs": [
        {
          "internalType": "string",
          "name": "name",
          "type": "string"
        },
        {
          "internalType": "uint256",
          "name": "balance",
          "type": "uint256"
        },
        {
          "internalType": "uint256",
          "name": "contributorCount",
          "type": "uint256"
        },
        {
          "internalType": "bool",
          "name": "isActive",
          "type": "bool"
        },
        {
          "internalType": "address",
          "name": "admin",
          "type": "address"
        }
      ],
      "stateMutability": "view",
      "type": "function"
    },
    {
      "inputs": [
        {
          "internalType": "address",
          "name": "company",
          "type": "address"
        },
        {
          "internalType": "address",
          "name": "contributor",
          "type": "address"
        }
      ],
      "name": "getContributorDetails",
      "outputs": [
        {
          "internalType": "string",
          "name": "name",
          "type": "string"
        },
        {
          "internalType": "uint256",
          "name": "salary",
          "type": "uint256"
        },
        {
          "internalType": "uint256",
          "name": "nextPayment",
          "type": "uint256"
        },
        {
          "internalType": "uint256",
          "name": "paymentFrequency",
          "type": "uint256"
        },
        {
          "internalType": "bool",
          "name": "isActive",
          "type": "bool"
        },
        {
          "internalType": "uint256",
          "name": "lastProcessedTime",
          "type": "uint256"
        }
      ],
      "stateMutability": "view",
      "type": "function"
    },
    {
      "inputs": [
        {
          "internalType": "address",
          "name": "account",
          "type": "address"
        }
      ],
      "name": "getLoanBalance",
      "outputs": [
        {
          "internalType": "uint256",
          "name": "",
          "type": "uint256"
        }
      ],
      "stateMutability": "view",
      "type": "function"
    },
    {
      "inputs": [
        {
          "internalType": "address",
          "name": "borrower",
          "type": "address"
        }
      ],
      "name": "getLoanInfo",
      "outputs": [
        {
          "internalType": "uint256",
          "name": "loanBalance",
          "type": "uint256"
        },
        {
          "internalType": "uint256",
          "name": "creditScore",
          "type": "uint256"
        },
        {
          "internalType": "enum LoanStatus",
          "name": "status",
          "type": "uint8"
        }
      ],
      "stateMutability": "view",
      "type": "function"
    },
    {
      "inputs": [
        {
          "internalType": "bytes32",
          "name": "role",
          "type": "bytes32"
        }
      ],
      "name": "getRoleAdmin",
      "outputs": [
        {
          "internalType": "bytes32",
          "name": "",
          "type": "bytes32"
        }
      ],
      "stateMutability": "view",
      "type": "function"
    },
    {
      "inputs": [
        {
          "internalType": "address",
          "name": "account",
          "type": "address"
        }
      ],
      "name": "getStakedAmount",
      "outputs": [
        {
          "internalType": "uint256",
          "name": "",
          "type": "uint256"
        }
      ],
      "stateMutability": "view",
      "type": "function"
    },
    {
      "inputs": [
        {
          "internalType": "address",
          "name": "account",
          "type": "address"
        }
      ],
      "name": "getStakingInfo",
      "outputs": [
        {
          "internalType": "uint256",
          "name": "stakedAmount",
          "type": "uint256"
        },
        {
          "internalType": "uint256",
          "name": "pendingRewards",
          "type": "uint256"
        },
        {
          "internalType": "uint256",
          "name": "currentRate",
          "type": "uint256"
        }
      ],
      "stateMutability": "view",
      "type": "function"
    },
    {
      "inputs": [
        {
          "internalType": "address",
          "name": "company",
          "type": "address"
        }
      ],
      "name": "getTotalPayroll",
      "outputs": [
        {
          "internalType": "uint256",
          "name": "",
          "type": "uint256"
        }
      ],
      "stateMutability": "view",
      "type": "function"
    },
    {
      "inputs": [
        {
          "internalType": "bytes32",
          "name": "role",
          "type": "bytes32"
        },
        {
          "internalType": "address",
          "name": "account",
          "type": "address"
        }
      ],
      "name": "grantRole",
      "outputs": [],
      "stateMutability": "nonpayable",
      "type": "function"
    },
    {
      "inputs": [
        {
          "internalType": "bytes32",
          "name": "role",
          "type": "bytes32"
        },
        {
          "internalType": "address",
          "name": "account",
          "type": "address"
        }
      ],
      "name": "hasRole",
      "outputs": [
        {
          "internalType": "bool",
          "name": "",
          "type": "bool"
        }
      ],
      "stateMutability": "view",
      "type": "function"
    },
    {
      "inputs": [
        {
          "internalType": "address",
          "name": "company",
          "type": "address"
        },
        {
          "internalType": "address",
          "name": "contributor",
          "type": "address"
        }
      ],
      "name": "isPaymentDue",
      "outputs": [
        {
          "internalType": "bool",
          "name": "",
          "type": "bool"
        }
      ],
      "stateMutability": "view",
      "type": "function"
    },
    {
      "inputs": [],
      "name": "loanContract",
      "outputs": [
        {
          "internalType": "contract IPaythenaLoan",
          "name": "",
          "type": "address"
        }
      ],
      "stateMutability": "view",
      "type": "function"
    },
    {
      "inputs": [],
      "name": "pause",
      "outputs": [],
      "stateMutability": "nonpayable",
      "type": "function"
    },
    {
      "inputs": [],
      "name": "paused",
      "outputs": [
        {
          "internalType": "bool",
          "name": "",
          "type": "bool"
        }
      ],
      "stateMutability": "view",
      "type": "function"
    },
    {
      "inputs": [
        {
          "internalType": "address[]",
          "name": "contributors",
          "type": "address[]"
        }
      ],
      "name": "processPaymentBatch",
      "outputs": [
        {
          "internalType": "uint256",
          "name": "",
          "type": "uint256"
        }
      ],
      "stateMutability": "nonpayable",
      "type": "function"
    },
    {
      "inputs": [
        {
          "internalType": "address",
          "name": "contributor",
          "type": "address"
        }
      ],
      "name": "processSalary",
      "outputs": [],
      "stateMutability": "nonpayable",
      "type": "function"
    },
    {
      "inputs": [
        {
          "internalType": "string",
          "name": "name",
          "type": "string"
        }
      ],
      "name": "registerCompany",
      "outputs": [],
      "stateMutability": "nonpayable",
      "type": "function"
    },
    {
      "inputs": [
        {
          "internalType": "address",
          "name": "contributor",
          "type": "address"
        }
      ],
      "name": "removeContributor",
      "outputs": [],
      "stateMutability": "nonpayable",
      "type": "function"
    },
    {
      "inputs": [
        {
          "internalType": "bytes32",
          "name": "role",
          "type": "bytes32"
        },
        {
          "internalType": "address",
          "name": "account",
          "type": "address"
        }
      ],
      "name": "renounceRole",
      "outputs": [],
      "stateMutability": "nonpayable",
      "type": "function"
    },
    {
      "inputs": [
        {
          "internalType": "bytes32",
          "name": "role",
          "type": "bytes32"
        },
        {
          "internalType": "address",
          "name": "account",
          "type": "address"
        }
      ],
      "name": "revokeRole",
      "outputs": [],
      "stateMutability": "nonpayable",
      "type": "function"
    },
    {
      "inputs": [
        {
          "internalType": "address",
          "name": "_automationContract",
          "type": "address"
        }
      ],
      "name": "setAutomationContract",
      "outputs": [],
      "stateMutability": "nonpayable",
      "type": "function"
    },
    {
      "inputs": [
        {
          "internalType": "address",
          "name": "_loanContract",
          "type": "address"
        }
      ],
      "name": "setLoanContract",
      "outputs": [],
      "stateMutability": "nonpayable",
      "type": "function"
    },
    {
      "inputs": [
        {
          "internalType": "address",
          "name": "_stakingContract",
          "type": "address"
        }
      ],
      "name": "setStakingContract",
      "outputs": [],
      "stateMutability": "nonpayable",
      "type": "function"
    },
    {
      "inputs": [],
      "name": "stakingContract",
      "outputs": [
        {
          "internalType": "contract IPaythenaStaking",
          "name": "",
          "type": "address"
        }
      ],
      "stateMutability": "view",
      "type": "function"
    },
    {
      "inputs": [
        {
          "internalType": "bytes4",
          "name": "interfaceId",
          "type": "bytes4"
        }
      ],
      "name": "supportsInterface",
      "outputs": [
        {
          "internalType": "bool",
          "name": "",
          "type": "bool"
        }
      ],
      "stateMutability": "view",
      "type": "function"
    },
    {
      "inputs": [],
      "name": "unpause",
      "outputs": [],
      "stateMutability": "nonpayable",
      "type": "function"
    },
    {
      "inputs": [
        {
          "internalType": "uint256",
          "name": "amount",
          "type": "uint256"
        }
      ],
      "name": "withdraw",
      "outputs": [],
      "stateMutability": "nonpayable",
      "type": "function"
    }
  ],
  "transactionHash": "0x34879136e22e9080a2ed5d34cffa3461c899e7f9efe0bba1a8926c8508f54144",
  "args": [
    "0x391FfEB2B58d4c08a484ad21C639D2c7fd793f76",
    "0x165eD3639C955CC79485ee580659860CdEAC9155"
  ],
  "numDeployments": 1,
  "solcInputHash": "dd7f43f006d7b5e17cd30b2a51833282",
  "bytecode": "0x6101006040527f9e1688b53537f356172ce07f39e129155063957163c5f9462d4d9e55b228b06c6080527fe2889e7308860b3fe8df0daa86fccfea4d71e43776719a57be28cf90b6db81e960a0527f85d36e3b488c35c2a15344b305cb84e2000f26d4f3a7c1e8a516f0e82aee752a60c0527f5f924c6b1faae42f36fa6b66af882e9a987aefb9164fceeea420ca4168959c6660e0526001600b55348015620000a757600080fd5b506040516200347038038062003470833981016040819052620000ca9162000232565b60016000556002805460ff191690556001600160a01b038216620001015760405163e6c4247b60e01b815260040160405180910390fd5b6001600160a01b038116620001295760405163e6c4247b60e01b815260040160405180910390fd5b60028054610100600160a81b0319166101006001600160a01b038581169190910291909117909155600380546001600160a01b031916918316919091179055620001756000336200017e565b5050506200026a565b60008281526001602090815260408083206001600160a01b038516845290915281205460ff166200020b5760008381526001602081815260408084206001600160a01b0387168086529252808420805460ff19169093179092559051339286917f2f8788117e7eff1d82e926ec794901d17c78024a50270940304540a733656f0d9190a45060016200020f565b5060005b92915050565b80516001600160a01b03811681146200022d57600080fd5b919050565b600080604083850312156200024657600080fd5b620002518362000215565b9150620002616020840162000215565b90509250929050565b60805160a05160c05160e05161317f620002f160003960006103740152600081816103ad015281816113e801528181611414015261243a01526000818161068501528181611b360152611ef101526000818161032f015281816107cb01528181610c79015281816114940152818161193e01528181611dee0152611f78015261317f6000f3fe608060405234801561001057600080fd5b50600436106102895760003560e01c8063560decd01161015c578063a217fddf116100ce578063d547741f11610087578063d547741f1461063b578063e1e3a7e01461064e578063e82e1c1014610670578063eafb79e214610683578063ee99205c146106a9578063eff64809146106c157600080fd5b8063a217fddf146105c2578063aa4704f3146105ca578063afba8f5a146105f8578063b3f3ab5c14610602578063b6b55f2514610615578063ca3539251461062857600080fd5b80638a7824a0116101205780638a7824a01461054357806391d1485414610556578063920ab59f14610569578063961b766e1461057c57806398e9373a146105865780639dd373b9146105af57600080fd5b8063560decd0146104e35780635c975abb1461050a57806362909f0a146105155780636dfc2a6f146105285780638456cb591461053b57600080fd5b80632a7405531161020057806336568abe116101b957806336568abe1461045d5780633f4ba83a1461047057806342de081b1461047857806347a0cb57146104935780634af1094e146104a65780634da6a556146104d057600080fd5b80632a740553146103e45780632c784a8f146104095780632e1a7d4d146104115780632f2ff15d1461042457806331d3880614610437578063355e6ce81461044a57600080fd5b80631c9ee11a116102525780631c9ee11a1461032d57806321176f9a1461035d57806322cdbe6a14610372578063248a9ca31461039857806324c20eec146103ab578063253f284b146103d157600080fd5b80625441941461028e57806301ffc9a7146102a35780630558d3e9146102cb5780630689d5ed146102ef5780630fd80f7e1461031a575b600080fd5b6102a161029c366004612b04565b6106d4565b005b6102b66102b1366004612b46565b610844565b60405190151581526020015b60405180910390f35b6102de6102d9366004612b8c565b61087b565b6040516102c2959493929190612bf7565b600454610302906001600160a01b031681565b6040516001600160a01b0390911681526020016102c2565b6102b6610328366004612b8c565b610960565b7f00000000000000000000000000000000000000000000000000000000000000005b6040519081526020016102c2565b6103656109b9565b6040516102c29190612c37565b7f000000000000000000000000000000000000000000000000000000000000000061034f565b61034f6103a6366004612c84565b610b51565b7f000000000000000000000000000000000000000000000000000000000000000061034f565b600354610302906001600160a01b031681565b6103f76103f2366004612c9d565b610b68565b6040516102c296959493929190612cd0565b61034f600a81565b6102a161041f366004612c84565b610c64565b6102a1610432366004612d0e565b610db7565b6102a1610445366004612b8c565b610dc1565b6102de610458366004612b8c565b610e41565b6102a161046b366004612d0e565b610f06565b6102a1610f10565b61030273426e7d03f9803dd11cb8616c65b99a3c0afea6de81565b61034f6104a1366004612b8c565b610f23565b6104ae610f93565b60408051948552602085019390935291830152151560608201526080016102c2565b61034f6104de366004612b8c565b611172565b6104eb6111aa565b60408051931515845291151560208401521515908201526060016102c2565b60025460ff166102b6565b6102a1610523366004612b8c565b611361565b6102a1610536366004612b8c565b61147f565b6102a1611819565b61034f610551366004612b8c565b61182c565b6102b6610564366004612d0e565b6118fb565b6102a1610577366004612d31565b611929565b61034f62278d0081565b610302610594366004612b8c565b6006602052600090815260409020546001600160a01b031681565b6102a16105bd366004612b8c565b611bc0565b61034f600081565b6105dd6105d8366004612b8c565b611c46565b604080519384526020840192909252908201526060016102c2565b61034f6201518081565b6102a1610610366004612b8c565b611dd9565b6102a1610623366004612c84565b611f63565b6102b6610636366004612c9d565b612080565b6102a1610649366004612d0e565b6120e9565b61066161065c366004612b8c565b6120f3565b6040516102c293929190612d96565b61036561067e366004612b8c565b61227f565b7f000000000000000000000000000000000000000000000000000000000000000061034f565b6002546103029061010090046001600160a01b031681565b61034f6106cf366004612dd0565b612436565b6106dc612613565b6106e461263d565b60008190036107065760405163162908e360e11b815260040160405180910390fd5b3360009081526005602052604090206003015460ff161561073a57604051631936b76760e11b815260040160405180910390fd5b33600090815260056020526040902080610755838583612ee3565b5060006001828101829055600283018290556003830180546001600160a81b03191661010033908102919091178317909155600a805492830181559092527fc65a7bb8d6351c1cf70c95a316cc6a92839c986682d98bc35f958f4883f9d2a80180546001600160a01b031916821790556107f0907f000000000000000000000000000000000000000000000000000000000000000090612663565b50336001600160a01b03167e78dab93f1aeefc09535aa58402d91dde97c29a340cd7a0a57e12529c94e21484844260405161082d93929190612fcc565b60405180910390a2506108406001600055565b5050565b60006001600160e01b03198216637965db0b60e01b148061087557506301ffc9a760e01b6001600160e01b03198316145b92915050565b6001600160a01b038082166000908152600560205260408120600181015460028201546003830154835460609686958695869591948594919360ff821692610100909204169085906108cc90612e5b565b80601f01602080910402602001604051908101604052809291908181526020018280546108f890612e5b565b80156109455780601f1061091a57610100808354040283529160200191610945565b820191906000526020600020905b81548152906001019060200180831161092857829003601f168201915b50505050509450955095509550955095505091939590929450565b6001600160a01b0381166000908152600560205260408120600381015460ff16158061098e575060025460ff165b1561099c5750600092915050565b60006109a78461182c565b60019092015491909110159392505050565b60606000805b600a54811015610a305760056000600a83815481106109e0576109e0612ff0565b60009182526020808320909101546001600160a01b0316835282019290925260400190206003015460ff1615610a1e5781610a1a8161301c565b9250505b80610a288161301c565b9150506109bf565b5060008167ffffffffffffffff811115610a4c57610a4c612e45565b604051908082528060200260200182016040528015610a75578160200160208202803683370190505b5090506000805b600a54811015610b485760056000600a8381548110610a9d57610a9d612ff0565b60009182526020808320909101546001600160a01b0316835282019290925260400190206003015460ff1615610b3657600a8181548110610ae057610ae0612ff0565b9060005260206000200160009054906101000a90046001600160a01b0316838381518110610b1057610b10612ff0565b6001600160a01b039092166020928302919091019091015281610b328161301c565b9250505b80610b408161301c565b915050610a7c565b50909392505050565b600081815260016020819052604082200154610875565b6001600160a01b0380831660009081526005602081815260408084209486168452600494850190915282206001810154600382015494820154600683015493830154835460609787968796879687969195869591949360ff16918690610bcd90612e5b565b80601f0160208091040260200160405190810160405280929190818152602001828054610bf990612e5b565b8015610c465780601f10610c1b57610100808354040283529160200191610c46565b820191906000526020600020905b815481529060010190602001808311610c2957829003601f168201915b50505050509550965096509650965096509650509295509295509295565b610c6c612613565b610c7461263d565b610c9e7f0000000000000000000000000000000000000000000000000000000000000000336118fb565b610cbb57604051631a27eac360e11b815260040160405180910390fd5b80600003610cdc5760405163162908e360e11b815260040160405180910390fd5b336000908152600560205260409020600381015460ff16610d1057604051630245e10f60e51b815260040160405180910390fd5b8181600101541015610d3557604051631e9acf1760e31b815260040160405180910390fd5b81816001016000828254610d499190613035565b90915550610d6e905073426e7d03f9803dd11cb8616c65b99a3c0afea6de33846126dc565b6040805183815242602082015233917ffbc3a599b784fe88772fc5abcc07223f64ca0b13acc341f4fb1e46bef0510eb491015b60405180910390a250610db46001600055565b50565b6108408282612740565b6000610dcc81612762565b6001600160a01b038216610df35760405163e6c4247b60e01b815260040160405180910390fd5b816001600160a01b03163b600003610e1e5760405163e6c4247b60e01b815260040160405180910390fd5b50600380546001600160a01b0319166001600160a01b0392909216919091179055565b600560205260009081526040902080548190610e5c90612e5b565b80601f0160208091040260200160405190810160405280929190818152602001828054610e8890612e5b565b8015610ed55780601f10610eaa57610100808354040283529160200191610ed5565b820191906000526020600020905b815481529060010190602001808311610eb857829003601f168201915b50505050600183015460028401546003909401549293909290915060ff81169061010090046001600160a01b031685565b610840828261276c565b6000610f1b81612762565b610db461279f565b6003546040516347a0cb5760e01b81526001600160a01b03838116600483015260009216906347a0cb57906024015b602060405180830381865afa158015610f6f573d6000803e3d6000fd5b505050506040513d601f19601f820116820180604052508101906108759190613048565b6004546000908190819081906001600160a01b0316610fbd5750600092508291508190508061116c565b6004805460408051631569d07f60e21b815290516001600160a01b03909216926355a741fc9282820192602092908290030181865afa925050508015611020575060408051601f3d908101601f1916820190925261101d91810190613048565b60015b61104357600080600061103560025460ff1690565b15935093509350935061116c565b60048054604080516333f6fc9560e21b815290516001600160a01b039092169263cfdbf2549282820192602092908290030181865afa9250505080156110a6575060408051601f3d908101601f191682019092526110a391810190613048565b60015b6110c957806000806110ba60025460ff1690565b1594509450945094505061116c565b60048054604080516331e4c7fd60e11b815290516001600160a01b03909216926363c98ffa9282820192602092908290030181865afa92505050801561112c575060408051601f3d908101601f1916820190925261112991810190613048565b60015b611150578181600061114060025460ff1690565b159550955095509550505061116c565b82828261115f60025460ff1690565b1596509650965096505050505b90919293565b6002546040516326d352ab60e11b81526001600160a01b03838116600483015260009261010090041690634da6a55690602401610f52565b6002546000908190819061010090046001600160a01b0316158015906112445750600260019054906101000a90046001600160a01b03166001600160a01b0316635c975abb6040518163ffffffff1660e01b8152600401602060405180830381865afa15801561121e573d6000803e3d6000fd5b505050506040513d601f19601f820116820180604052508101906112429190613061565b155b6003549093506001600160a01b0316158015906112d55750600360009054906101000a90046001600160a01b03166001600160a01b0316635c975abb6040518163ffffffff1660e01b8152600401602060405180830381865afa1580156112af573d6000803e3d6000fd5b505050506040513d601f19601f820116820180604052508101906112d39190613061565b155b6004549092506001600160a01b03161580159061135a57506004805460408051635c975abb60e01b815290516001600160a01b0390921692635c975abb9282820192602092908290030181865afa158015611334573d6000803e3d6000fd5b505050506040513d601f19601f820116820180604052508101906113589190613061565b155b9050909192565b600061136c81612762565b6001600160a01b0382166113935760405163e6c4247b60e01b815260040160405180910390fd5b816001600160a01b03163b6000036113be5760405163e6c4247b60e01b815260040160405180910390fd5b600480546001600160a01b038481166001600160a01b031983161790925516801561140f5761140d7f0000000000000000000000000000000000000000000000000000000000000000826127f1565b505b6114397f000000000000000000000000000000000000000000000000000000000000000084612663565b50826001600160a01b0316816001600160a01b03167f4a187f3ac38868f39de8723a1005de90d9c78e65ca0c858247d767426f5b4f5160405160405180910390a3505050565b611487612613565b61148f61263d565b6114b97f0000000000000000000000000000000000000000000000000000000000000000336118fb565b6114d657604051631a27eac360e11b815260040160405180910390fd5b336000908152600560205260409020600381015460ff1661150a57604051630245e10f60e51b815260040160405180910390fd5b6001600160a01b03821660009081526004820160205260409020600681015460ff1661154957604051632fbfa62560e11b815260040160405180910390fd5b806003015442101561156e5760405163424e8d7160e01b815260040160405180910390fd5b80600101548260010154101561159757604051631e9acf1760e31b815260040160405180910390fd5b600b8054600091826115a88361301c565b909155506040516bffffffffffffffffffffffff1933606090811b8216602084015287901b1660348201526048810182905242606882015290915060009060880160408051601f1981840301815291815281516020928301206000818152600990935291205490915060ff16156116325760405163424e8d7160e01b815260040160405180910390fd5b6000818152600960205260408120805460ff1916600190811790915584810154908601805491929091611666908490613035565b90915550504260028401819055600484015461168191613083565b836003018190555042836005018190555060006040518060a001604052808481526020018381526020014281526020018560010154815260200160011515815250905060086000336001600160a01b03166001600160a01b031681526020019081526020016000206000876001600160a01b03166001600160a01b031681526020019081526020016000208190806001815401808255809150506001900390600052602060002090600502016000909190919091506000820151816000015560208201518160010155604082015181600201556060820151816003015560808201518160040160006101000a81548160ff02191690831515021790555050506117b686856001015473426e7d03f9803dd11cb8616c65b99a3c0afea6de6001600160a01b03166126dc9092919063ffffffff16565b6001840154604080519182526020820184905242908201526001600160a01b03871690339085907fbab3cfc9d6a10712ad8dfb8d2a5816fbd3e5816106f7bb643302ca34df1f67b39060600160405180910390a45050505050610db46001600055565b600061182481612762565b610db461285e565b6001600160a01b0381166000908152600560205260408120600381015460ff166118595750600092915050565b6000805b60058301548110156118f357600083600501828154811061188057611880612ff0565b60009182526020808320909101546001600160a01b03168083526004870190915260409091206006015490915060ff16156118e0576001600160a01b03811660009081526004850160205260409020600101546118dd9084613083565b92505b50806118eb8161301c565b91505061185d565b509392505050565b60008281526001602090815260408083206001600160a01b038516845290915281205460ff165b9392505050565b611931612613565b61193961263d565b6119637f0000000000000000000000000000000000000000000000000000000000000000336118fb565b61198057604051631a27eac360e11b815260040160405180910390fd5b6001600160a01b0385166119a75760405163e6c4247b60e01b815260040160405180910390fd5b60008390036119c95760405163162908e360e11b815260040160405180910390fd5b816000036119ea5760405163162908e360e11b815260040160405180910390fd5b620151808110806119fd575062278d0081115b15611a1b5760405163e3c2448f60e01b815260040160405180910390fd5b336000908152600560205260409020600381015460ff16611a4f57604051630245e10f60e51b815260040160405180910390fd5b6001600160a01b03861660009081526004820160205260409020600681015460ff1615611a8f57604051632fbfa62560e11b815260040160405180910390fd5b80611a9b868883612ee3565b506001810184905560048101839055611ab48342613083565b600382015560068101805460ff19166001179055426005820155600282018054906000611ae08361301c565b90915550506005820180546001810182556000918252602080832090910180546001600160a01b038b166001600160a01b0319918216811790925590835260069091526040909120805490911633179055611b5b7f000000000000000000000000000000000000000000000000000000000000000088612663565b50866001600160a01b0316336001600160a01b03167faed431cd04d6e4f7ac218a44e05908c2dd6b872fe4b9350d1eb6b1e099f509b288888842604051611ba59493929190613096565b60405180910390a35050611bb96001600055565b5050505050565b6000611bcb81612762565b6001600160a01b038216611bf25760405163e6c4247b60e01b815260040160405180910390fd5b816001600160a01b03163b600003611c1d5760405163e6c4247b60e01b815260040160405180910390fd5b50600280546001600160a01b0390921661010002610100600160a81b0319909216919091179055565b6002546040516326d352ab60e11b81526001600160a01b0383811660048301526000928392839261010090920490911690634da6a55690602401602060405180830381865afa925050508015611cb9575060408051601f3d908101601f19168201909252611cb691810190613048565b60015b611ccb57506000915081905080611dd2565b60025460405163f6ed201760e01b81526001600160a01b0387811660048301526101009092049091169063f6ed201790602401602060405180830381865afa925050508015611d37575060408051601f3d908101601f19168201909252611d3491810190613048565b60015b611d4957925060009150819050611dd2565b600260019054906101000a90046001600160a01b03166001600160a01b0316637b0a47ee6040518163ffffffff1660e01b8152600401602060405180830381865afa925050508015611db8575060408051601f3d908101601f19168201909252611db591810190613048565b60015b611dca57909350915060009050611dd2565b919450925090505b9193909250565b611de1612613565b611de961263d565b611e137f0000000000000000000000000000000000000000000000000000000000000000336118fb565b611e3057604051631a27eac360e11b815260040160405180910390fd5b336000908152600560205260409020600381015460ff16611e6457604051630245e10f60e51b815260040160405180910390fd5b6001600160a01b03821660009081526004820160205260409020600681015460ff16611ea357604051632fbfa62560e11b815260040160405180910390fd5b60068101805460ff19169055600282018054906000611ec1836130bd565b90915550506001600160a01b038316600090815260066020526040902080546001600160a01b0319169055611f167f0000000000000000000000000000000000000000000000000000000000000000846127f1565b506040514281526001600160a01b0384169033907f2ab800b74f4f863677eacf1ea75679786772c656a00c1e0d68cb526fce217a3d9060200160405180910390a35050610db46001600055565b611f6b612613565b611f7361263d565b611f9d7f0000000000000000000000000000000000000000000000000000000000000000336118fb565b611fba57604051631a27eac360e11b815260040160405180910390fd5b80600003611fdb5760405163162908e360e11b815260040160405180910390fd5b336000908152600560205260409020600381015460ff1661200f57604051630245e10f60e51b815260040160405180910390fd5b818160010160008282546120239190613083565b90915550612049905073426e7d03f9803dd11cb8616c65b99a3c0afea6de33308561289b565b6040805183815242602082015233917fbee4fe3675934fca827426c793623996a3079255089bda3a717019ffc5db27659101610da1565b6001600160a01b0382166000908152600560205260408120600381015460ff166120ae576000915050610875565b6001600160a01b03831660009081526004820160205260409020600681015460ff1680156120e0575080600301544210155b95945050505050565b61084082826128d4565b600354604051637453ed4760e11b81526001600160a01b038381166004830152600092839283929091169063e8a7da8e9060240160c060405180830381865afa925050508015612160575060408051601f3d908101601f1916820190925261215d918101906130d4565b60015b61217257506000915081905080611dd2565b6003546040516347a0cb5760e01b81526001600160a01b038c81166004830152909116906347a0cb5790602401602060405180830381865afa9250505080156121d8575060408051601f3d908101601f191682019092526121d591810190613048565b60015b6121f057600098508897509550611dd2945050505050565b60035460405163d3dd2bdf60e01b81526001600160a01b038d811660048301529091169063d3dd2bdf90602401602060405180830381865afa925050508015612256575060408051601f3d908101601f1916820190925261225391810190613048565b60015b61226d579850600097509550611dd2945050505050565b90995097509550611dd2945050505050565b6001600160a01b038116600090815260056020526040902060038101546060919060ff166122c057604051630245e10f60e51b815260040160405180910390fd5b6000805b600583015481101561233b578260040160008460050183815481106122eb576122eb612ff0565b60009182526020808320909101546001600160a01b0316835282019290925260400190206006015460ff161561232957816123258161301c565b9250505b806123338161301c565b9150506122c4565b5060008167ffffffffffffffff81111561235757612357612e45565b604051908082528060200260200182016040528015612380578160200160208202803683370190505b5090506000805b600585015481101561242b5760008560050182815481106123aa576123aa612ff0565b60009182526020808320909101546001600160a01b03168083526004890190915260409091206006015490915060ff161561241857808484815181106123f2576123f2612ff0565b6001600160a01b0390921660209283029190910190910152826124148161301c565b9350505b50806124238161301c565b915050612387565b509095945050505050565b60007f000000000000000000000000000000000000000000000000000000000000000061246281612762565b61246a612613565b61247261263d565b6004546001600160a01b0316331461249d57604051631a27eac360e11b815260040160405180910390fd5b6000805b848110156125ff5760008686838181106124bd576124bd612ff0565b90506020020160208101906124d29190612b8c565b6001600160a01b03808216600090815260066020526040902054919250166124fa8183612080565b6125055750506125ed565b61250e81610960565b6125195750506125ed565b604051636dfc2a6f60e01b81526001600160a01b03831660048201523090636dfc2a6f90602401600060405180830381600087803b15801561255a57600080fd5b505af192505050801561256b575060015b6125dd577f35ca5a6b925e6b7d3fa69fb4673c8e327177ef46b66f3febd3c33636eca57fb06040516125ce906040808252600e908201526d14185e5b595b9d0819985a5b195960921b606082015260806020820181905260009082015260a00190565b60405180910390a150506125ed565b836125e78161301c565b94505050505b806125f78161301c565b9150506124a1565b50915061260c6001600055565b5092915050565b60026000540361263657604051633ee5aeb560e01b815260040160405180910390fd5b6002600055565b60025460ff16156126615760405163d93c066560e01b815260040160405180910390fd5b565b600061266f83836118fb565b6126d45760008381526001602081815260408084206001600160a01b0387168086529252808420805460ff19169093179092559051339286917f2f8788117e7eff1d82e926ec794901d17c78024a50270940304540a733656f0d9190a4506001610875565b506000610875565b6040516001600160a01b0383811660248301526044820183905261273b91859182169063a9059cbb906064015b604051602081830303815290604052915060e01b6020820180516001600160e01b0383818316178352505050506128f0565b505050565b61274982610b51565b61275281612762565b61275c8383612663565b50505050565b610db48133612958565b6001600160a01b03811633146127955760405163334bd91960e11b815260040160405180910390fd5b61273b82826127f1565b6127a7612991565b6002805460ff191690557f5db9ee0a495bf2e6ff9c91a7834c1ba4fdd244a5e8aa4e537bd38aeae4b073aa335b6040516001600160a01b03909116815260200160405180910390a1565b60006127fd83836118fb565b156126d45760008381526001602090815260408083206001600160a01b0386168085529252808320805460ff1916905551339286917ff6391f5c32d9c69d2a47ea670b442974b53935d1edc7fd64eb21e047a839171b9190a4506001610875565b61286661263d565b6002805460ff191660011790557f62e78cea01bee320cd4e420270b5ea74000d11b0c9f74754ebdbfc544b05a2586127d43390565b6040516001600160a01b03848116602483015283811660448301526064820183905261275c9186918216906323b872dd90608401612709565b6128dd82610b51565b6128e681612762565b61275c83836127f1565b60006129056001600160a01b038416836129b4565b9050805160001415801561292a5750808060200190518101906129289190613061565b155b1561273b57604051635274afe760e01b81526001600160a01b03841660048201526024015b60405180910390fd5b61296282826118fb565b6108405760405163e2517d3f60e01b81526001600160a01b03821660048201526024810183905260440161294f565b60025460ff1661266157604051638dfc202b60e01b815260040160405180910390fd5b60606119228383600084600080856001600160a01b031684866040516129da919061312d565b60006040518083038185875af1925050503d8060008114612a17576040519150601f19603f3d011682016040523d82523d6000602084013e612a1c565b606091505b5091509150612a2c868383612a36565b9695505050505050565b606082612a4b57612a4682612a92565b611922565b8151158015612a6257506001600160a01b0384163b155b15612a8b57604051639996b31560e01b81526001600160a01b038516600482015260240161294f565b5080611922565b805115612aa25780518082602001fd5b604051630a12f52160e11b815260040160405180910390fd5b60008083601f840112612acd57600080fd5b50813567ffffffffffffffff811115612ae557600080fd5b602083019150836020828501011115612afd57600080fd5b9250929050565b60008060208385031215612b1757600080fd5b823567ffffffffffffffff811115612b2e57600080fd5b612b3a85828601612abb565b90969095509350505050565b600060208284031215612b5857600080fd5b81356001600160e01b03198116811461192257600080fd5b80356001600160a01b0381168114612b8757600080fd5b919050565b600060208284031215612b9e57600080fd5b61192282612b70565b60005b83811015612bc2578181015183820152602001612baa565b50506000910152565b60008151808452612be3816020860160208601612ba7565b601f01601f19169290920160200192915050565b60a081526000612c0a60a0830188612bcb565b602083019690965250604081019390935290151560608301526001600160a01b0316608090910152919050565b6020808252825182820181905260009190848201906040850190845b81811015612c785783516001600160a01b031683529284019291840191600101612c53565b50909695505050505050565b600060208284031215612c9657600080fd5b5035919050565b60008060408385031215612cb057600080fd5b612cb983612b70565b9150612cc760208401612b70565b90509250929050565b60c081526000612ce360c0830189612bcb565b602083019790975250604081019490945260608401929092521515608083015260a090910152919050565b60008060408385031215612d2157600080fd5b82359150612cc760208401612b70565b600080600080600060808688031215612d4957600080fd5b612d5286612b70565b9450602086013567ffffffffffffffff811115612d6e57600080fd5b612d7a88828901612abb565b9699909850959660408101359660609091013595509350505050565b838152602081018390526060810160078310612dc257634e487b7160e01b600052602160045260246000fd5b826040830152949350505050565b60008060208385031215612de357600080fd5b823567ffffffffffffffff80821115612dfb57600080fd5b818501915085601f830112612e0f57600080fd5b813581811115612e1e57600080fd5b8660208260051b8501011115612e3357600080fd5b60209290920196919550909350505050565b634e487b7160e01b600052604160045260246000fd5b600181811c90821680612e6f57607f821691505b602082108103612e8f57634e487b7160e01b600052602260045260246000fd5b50919050565b601f82111561273b57600081815260208120601f850160051c81016020861015612ebc5750805b601f850160051c820191505b81811015612edb57828155600101612ec8565b505050505050565b67ffffffffffffffff831115612efb57612efb612e45565b612f0f83612f098354612e5b565b83612e95565b6000601f841160018114612f435760008515612f2b5750838201355b600019600387901b1c1916600186901b178355611bb9565b600083815260209020601f19861690835b82811015612f745786850135825560209485019460019092019101612f54565b5086821015612f915760001960f88860031b161c19848701351681555b505060018560011b0183555050505050565b81835281816020850137506000828201602090810191909152601f909101601f19169091010190565b604081526000612fe0604083018587612fa3565b9050826020830152949350505050565b634e487b7160e01b600052603260045260246000fd5b634e487b7160e01b600052601160045260246000fd5b60006001820161302e5761302e613006565b5060010190565b8181038181111561087557610875613006565b60006020828403121561305a57600080fd5b5051919050565b60006020828403121561307357600080fd5b8151801515811461192257600080fd5b8082018082111561087557610875613006565b6060815260006130aa606083018688612fa3565b6020830194909452506040015292915050565b6000816130cc576130cc613006565b506000190190565b60008060008060008060c087890312156130ed57600080fd5b865195506020870151945060408701519350606087015192506080870151915060a08701516007811061311f57600080fd5b809150509295509295509295565b6000825161313f818460208701612ba7565b919091019291505056fea2646970667358221220c9cc9ecd798a111bae2a80e80ba1a31d5defd658ed5681962bf5ca93656d04f864736f6c63430008140033",
  "devdoc": {
    "details": "Handles company registration, contributor management, and payroll processing",
    "errors": {
      "AccessControlBadConfirmation()": [
        {
          "details": "The caller of a function is not the expected one. NOTE: Don't confuse with {AccessControlUnauthorizedAccount}."
        }
      ],
      "AccessControlUnauthorizedAccount(address,bytes32)": [
        {
          "details": "The `account` is missing a role."
        }
      ],
      "AddressEmptyCode(address)": [
        {
          "details": "There's no code at `target` (it is not a contract)."
        }
      ],
      "AddressInsufficientBalance(address)": [
        {
          "details": "The ETH balance of the account is not enough to perform the operation."
        }
      ],
      "EnforcedPause()": [
        {
          "details": "The operation failed because the contract is paused."
        }
      ],
      "ExpectedPause()": [
        {
          "details": "The operation failed because the contract is not paused."
        }
      ],
      "FailedInnerCall()": [
        {
          "details": "A call to an address target failed. The target may have reverted."
        }
      ],
      "ReentrancyGuardReentrantCall()": [
        {
          "details": "Unauthorized reentrant call."
        }
      ],
      "SafeERC20FailedOperation(address)": [
        {
          "details": "An operation with an ERC20 token failed."
        }
      ]
    },
    "events": {
      "Paused(address)": {
        "details": "Emitted when the pause is triggered by `account`."
      },
      "RoleAdminChanged(bytes32,bytes32,bytes32)": {
        "details": "Emitted when `newAdminRole` is set as ``role``'s admin role, replacing `previousAdminRole` `DEFAULT_ADMIN_ROLE` is the starting admin for all roles, despite {RoleAdminChanged} not being emitted signaling this."
      },
      "RoleGranted(bytes32,address,address)": {
        "details": "Emitted when `account` is granted `role`. `sender` is the account that originated the contract call, an admin role bearer except when using {AccessControl-_setupRole}."
      },
      "RoleRevoked(bytes32,address,address)": {
        "details": "Emitted when `account` is revoked `role`. `sender` is the account that originated the contract call:   - if using `revokeRole`, it is the admin role bearer   - if using `renounceRole`, it is the role bearer (i.e. `account`)"
      },
      "Unpaused(address)": {
        "details": "Emitted when the pause is lifted by `account`."
      }
    },
    "kind": "dev",
    "methods": {
      "constructor": {
        "params": {
          "_loanContract": "Address of loan contract",
          "_stakingContract": "Address of staking contract"
        }
      },
      "paused()": {
        "details": "Returns true if the contract is paused, and false otherwise."
      },
      "supportsInterface(bytes4)": {
        "details": "See {IERC165-supportsInterface}."
      }
    },
    "title": "PaythenaCore",
    "version": 1
  },
  "userdoc": {
    "kind": "user",
    "methods": {
      "constructor": {
        "notice": "Contract constructor"
      }
    },
    "notice": "Main contract for Paythena payroll system",
    "version": 1
  },
  "storageLayout": {
    "storage": [
      {
        "astId": 1193,
        "contract": "contracts/PaythenaCore.sol:PaythenaCore",
        "label": "_status",
        "offset": 0,
        "slot": "0",
        "type": "t_uint256"
      },
      {
        "astId": 26,
        "contract": "contracts/PaythenaCore.sol:PaythenaCore",
        "label": "_roles",
        "offset": 0,
        "slot": "1",
        "type": "t_mapping(t_bytes32,t_struct(RoleData)21_storage)"
      },
      {
        "astId": 1074,
        "contract": "contracts/PaythenaCore.sol:PaythenaCore",
        "label": "_paused",
        "offset": 0,
        "slot": "2",
        "type": "t_bool"
      },
      {
        "astId": 1670,
        "contract": "contracts/PaythenaCore.sol:PaythenaCore",
        "label": "stakingContract",
        "offset": 1,
        "slot": "2",
        "type": "t_contract(IPaythenaStaking)5994"
      },
      {
        "astId": 1673,
        "contract": "contracts/PaythenaCore.sol:PaythenaCore",
        "label": "loanContract",
        "offset": 0,
        "slot": "3",
        "type": "t_contract(IPaythenaLoan)5899"
      },
      {
        "astId": 1676,
        "contract": "contracts/PaythenaCore.sol:PaythenaCore",
        "label": "automationContract",
        "offset": 0,
        "slot": "4",
        "type": "t_contract(IPaythenaAutomation)5469"
      },
      {
        "astId": 1701,
        "contract": "contracts/PaythenaCore.sol:PaythenaCore",
        "label": "companies",
        "offset": 0,
        "slot": "5",
        "type": "t_mapping(t_address,t_struct(Company)5505_storage)"
      },
      {
        "astId": 1705,
        "contract": "contracts/PaythenaCore.sol:PaythenaCore",
        "label": "contributorToCompany",
        "offset": 0,
        "slot": "6",
        "type": "t_mapping(t_address,t_address)"
      },
      {
        "astId": 1711,
        "contract": "contracts/PaythenaCore.sol:PaythenaCore",
        "label": "paymentHistories",
        "offset": 0,
        "slot": "7",
        "type": "t_mapping(t_address,t_array(t_struct(PaymentHistory)1650_storage)dyn_storage)"
      },
      {
        "astId": 1719,
        "contract": "contracts/PaythenaCore.sol:PaythenaCore",
        "label": "paymentRecords",
        "offset": 0,
        "slot": "8",
        "type": "t_mapping(t_address,t_mapping(t_address,t_array(t_struct(PaymentRecord)1661_storage)dyn_storage))"
      },
      {
        "astId": 1723,
        "contract": "contracts/PaythenaCore.sol:PaythenaCore",
        "label": "processedTxs",
        "offset": 0,
        "slot": "9",
        "type": "t_mapping(t_bytes32,t_bool)"
      },
      {
        "astId": 1726,
        "contract": "contracts/PaythenaCore.sol:PaythenaCore",
        "label": "companyAddresses",
        "offset": 0,
        "slot": "10",
        "type": "t_array(t_address)dyn_storage"
      },
      {
        "astId": 1729,
        "contract": "contracts/PaythenaCore.sol:PaythenaCore",
        "label": "nextPaymentId",
        "offset": 0,
        "slot": "11",
        "type": "t_uint256"
      }
    ],
    "types": {
      "t_address": {
        "encoding": "inplace",
        "label": "address",
        "numberOfBytes": "20"
      },
      "t_array(t_address)dyn_storage": {
        "base": "t_address",
        "encoding": "dynamic_array",
        "label": "address[]",
        "numberOfBytes": "32"
      },
      "t_array(t_struct(PaymentHistory)1650_storage)dyn_storage": {
        "base": "t_struct(PaymentHistory)1650_storage",
        "encoding": "dynamic_array",
        "label": "struct PaythenaCore.PaymentHistory[]",
        "numberOfBytes": "32"
      },
      "t_array(t_struct(PaymentRecord)1661_storage)dyn_storage": {
        "base": "t_struct(PaymentRecord)1661_storage",
        "encoding": "dynamic_array",
        "label": "struct PaythenaCore.PaymentRecord[]",
        "numberOfBytes": "32"
      },
      "t_bool": {
        "encoding": "inplace",
        "label": "bool",
        "numberOfBytes": "1"
      },
      "t_bytes32": {
        "encoding": "inplace",
        "label": "bytes32",
        "numberOfBytes": "32"
      },
      "t_contract(IPaythenaAutomation)5469": {
        "encoding": "inplace",
        "label": "contract IPaythenaAutomation",
        "numberOfBytes": "20"
      },
      "t_contract(IPaythenaLoan)5899": {
        "encoding": "inplace",
        "label": "contract IPaythenaLoan",
        "numberOfBytes": "20"
      },
      "t_contract(IPaythenaStaking)5994": {
        "encoding": "inplace",
        "label": "contract IPaythenaStaking",
        "numberOfBytes": "20"
      },
      "t_mapping(t_address,t_address)": {
        "encoding": "mapping",
        "key": "t_address",
        "label": "mapping(address => address)",
        "numberOfBytes": "32",
        "value": "t_address"
      },
      "t_mapping(t_address,t_array(t_struct(PaymentHistory)1650_storage)dyn_storage)": {
        "encoding": "mapping",
        "key": "t_address",
        "label": "mapping(address => struct PaythenaCore.PaymentHistory[])",
        "numberOfBytes": "32",
        "value": "t_array(t_struct(PaymentHistory)1650_storage)dyn_storage"
      },
      "t_mapping(t_address,t_array(t_struct(PaymentRecord)1661_storage)dyn_storage)": {
        "encoding": "mapping",
        "key": "t_address",
        "label": "mapping(address => struct PaythenaCore.PaymentRecord[])",
        "numberOfBytes": "32",
        "value": "t_array(t_struct(PaymentRecord)1661_storage)dyn_storage"
      },
      "t_mapping(t_address,t_bool)": {
        "encoding": "mapping",
        "key": "t_address",
        "label": "mapping(address => bool)",
        "numberOfBytes": "32",
        "value": "t_bool"
      },
      "t_mapping(t_address,t_mapping(t_address,t_array(t_struct(PaymentRecord)1661_storage)dyn_storage))": {
        "encoding": "mapping",
        "key": "t_address",
        "label": "mapping(address => mapping(address => struct PaythenaCore.PaymentRecord[]))",
        "numberOfBytes": "32",
        "value": "t_mapping(t_address,t_array(t_struct(PaymentRecord)1661_storage)dyn_storage)"
      },
      "t_mapping(t_address,t_struct(Company)5505_storage)": {
        "encoding": "mapping",
        "key": "t_address",
        "label": "mapping(address => struct IPaythenaCore.Company)",
        "numberOfBytes": "32",
        "value": "t_struct(Company)5505_storage"
      },
      "t_mapping(t_address,t_struct(Contributor)5486_storage)": {
        "encoding": "mapping",
        "key": "t_address",
        "label": "mapping(address => struct IPaythenaCore.Contributor)",
        "numberOfBytes": "32",
        "value": "t_struct(Contributor)5486_storage"
      },
      "t_mapping(t_bytes32,t_bool)": {
        "encoding": "mapping",
        "key": "t_bytes32",
        "label": "mapping(bytes32 => bool)",
        "numberOfBytes": "32",
        "value": "t_bool"
      },
      "t_mapping(t_bytes32,t_struct(RoleData)21_storage)": {
        "encoding": "mapping",
        "key": "t_bytes32",
        "label": "mapping(bytes32 => struct AccessControl.RoleData)",
        "numberOfBytes": "32",
        "value": "t_struct(RoleData)21_storage"
      },
      "t_string_storage": {
        "encoding": "bytes",
        "label": "string",
        "numberOfBytes": "32"
      },
      "t_struct(Company)5505_storage": {
        "encoding": "inplace",
        "label": "struct IPaythenaCore.Company",
        "members": [
          {
            "astId": 5488,
            "contract": "contracts/PaythenaCore.sol:PaythenaCore",
            "label": "name",
            "offset": 0,
            "slot": "0",
            "type": "t_string_storage"
          },
          {
            "astId": 5490,
            "contract": "contracts/PaythenaCore.sol:PaythenaCore",
            "label": "balance",
            "offset": 0,
            "slot": "1",
            "type": "t_uint256"
          },
          {
            "astId": 5492,
            "contract": "contracts/PaythenaCore.sol:PaythenaCore",
            "label": "contributorCount",
            "offset": 0,
            "slot": "2",
            "type": "t_uint256"
          },
          {
            "astId": 5494,
            "contract": "contracts/PaythenaCore.sol:PaythenaCore",
            "label": "isActive",
            "offset": 0,
            "slot": "3",
            "type": "t_bool"
          },
          {
            "astId": 5496,
            "contract": "contracts/PaythenaCore.sol:PaythenaCore",
            "label": "admin",
            "offset": 1,
            "slot": "3",
            "type": "t_address"
          },
          {
            "astId": 5501,
            "contract": "contracts/PaythenaCore.sol:PaythenaCore",
            "label": "contributors",
            "offset": 0,
            "slot": "4",
            "type": "t_mapping(t_address,t_struct(Contributor)5486_storage)"
          },
          {
            "astId": 5504,
            "contract": "contracts/PaythenaCore.sol:PaythenaCore",
            "label": "contributorAddresses",
            "offset": 0,
            "slot": "5",
            "type": "t_array(t_address)dyn_storage"
          }
        ],
        "numberOfBytes": "192"
      },
      "t_struct(Contributor)5486_storage": {
        "encoding": "inplace",
        "label": "struct IPaythenaCore.Contributor",
        "members": [
          {
            "astId": 5473,
            "contract": "contracts/PaythenaCore.sol:PaythenaCore",
            "label": "name",
            "offset": 0,
            "slot": "0",
            "type": "t_string_storage"
          },
          {
            "astId": 5475,
            "contract": "contracts/PaythenaCore.sol:PaythenaCore",
            "label": "salary",
            "offset": 0,
            "slot": "1",
            "type": "t_uint256"
          },
          {
            "astId": 5477,
            "contract": "contracts/PaythenaCore.sol:PaythenaCore",
            "label": "lastPayment",
            "offset": 0,
            "slot": "2",
            "type": "t_uint256"
          },
          {
            "astId": 5479,
            "contract": "contracts/PaythenaCore.sol:PaythenaCore",
            "label": "nextPayment",
            "offset": 0,
            "slot": "3",
            "type": "t_uint256"
          },
          {
            "astId": 5481,
            "contract": "contracts/PaythenaCore.sol:PaythenaCore",
            "label": "paymentFrequency",
            "offset": 0,
            "slot": "4",
            "type": "t_uint256"
          },
          {
            "astId": 5483,
            "contract": "contracts/PaythenaCore.sol:PaythenaCore",
            "label": "lastProcessedTime",
            "offset": 0,
            "slot": "5",
            "type": "t_uint256"
          },
          {
            "astId": 5485,
            "contract": "contracts/PaythenaCore.sol:PaythenaCore",
            "label": "isActive",
            "offset": 0,
            "slot": "6",
            "type": "t_bool"
          }
        ],
        "numberOfBytes": "224"
      },
      "t_struct(PaymentHistory)1650_storage": {
        "encoding": "inplace",
        "label": "struct PaythenaCore.PaymentHistory",
        "members": [
          {
            "astId": 1645,
            "contract": "contracts/PaythenaCore.sol:PaythenaCore",
            "label": "amount",
            "offset": 0,
            "slot": "0",
            "type": "t_uint256"
          },
          {
            "astId": 1647,
            "contract": "contracts/PaythenaCore.sol:PaythenaCore",
            "label": "timestamp",
            "offset": 0,
            "slot": "1",
            "type": "t_uint256"
          },
          {
            "astId": 1649,
            "contract": "contracts/PaythenaCore.sol:PaythenaCore",
            "label": "description",
            "offset": 0,
            "slot": "2",
            "type": "t_string_storage"
          }
        ],
        "numberOfBytes": "96"
      },
      "t_struct(PaymentRecord)1661_storage": {
        "encoding": "inplace",
        "label": "struct PaythenaCore.PaymentRecord",
        "members": [
          {
            "astId": 1652,
            "contract": "contracts/PaythenaCore.sol:PaythenaCore",
            "label": "paymentId",
            "offset": 0,
            "slot": "0",
            "type": "t_uint256"
          },
          {
            "astId": 1654,
            "contract": "contracts/PaythenaCore.sol:PaythenaCore",
            "label": "txHash",
            "offset": 0,
            "slot": "1",
            "type": "t_bytes32"
          },
          {
            "astId": 1656,
            "contract": "contracts/PaythenaCore.sol:PaythenaCore",
            "label": "timestamp",
            "offset": 0,
            "slot": "2",
            "type": "t_uint256"
          },
          {
            "astId": 1658,
            "contract": "contracts/PaythenaCore.sol:PaythenaCore",
            "label": "amount",
            "offset": 0,
            "slot": "3",
            "type": "t_uint256"
          },
          {
            "astId": 1660,
            "contract": "contracts/PaythenaCore.sol:PaythenaCore",
            "label": "processed",
            "offset": 0,
            "slot": "4",
            "type": "t_bool"
          }
        ],
        "numberOfBytes": "160"
      },
      "t_struct(RoleData)21_storage": {
        "encoding": "inplace",
        "label": "struct AccessControl.RoleData",
        "members": [
          {
            "astId": 18,
            "contract": "contracts/PaythenaCore.sol:PaythenaCore",
            "label": "hasRole",
            "offset": 0,
            "slot": "0",
            "type": "t_mapping(t_address,t_bool)"
          },
          {
            "astId": 20,
            "contract": "contracts/PaythenaCore.sol:PaythenaCore",
            "label": "adminRole",
            "offset": 0,
            "slot": "1",
            "type": "t_bytes32"
          }
        ],
        "numberOfBytes": "64"
      },
      "t_uint256": {
        "encoding": "inplace",
        "label": "uint256",
        "numberOfBytes": "32"
      }
    }
  }
}